:020000040001F9
:10B0000020320020F5B001000FB1010011B10100A4
:10B010000000000000000000000000000000000030
:10B0200000000000000000000000000013B101005B
:10B03000000000000000000015B1010017B1010080
:10B0400095B20100E9B2010019B1010019B1010086
:10B0500019B101000000000019B1010019B101008F
:10B0600019B1010019B10100E5B50100A9B4010051
:10B0700019B1010019B1010019B1010019B10100A4
:10B0800019B1010019B1010019B1010019B1010094
:10B09000BDB4010019B1010019B1010019B10100DD
:10B0A00019B1010019B1010000000000000000000A
:10B0B0000000000000000000000000000000000090
:10B0C0000348854600F056F8004800473DBF0100A0
:10B0D00020320020401E00BF00BF00BF00BF00BFE5
:10B0E00000BF00BF00BF00BF00BF00BF00BFF1D165
:10B0F000704700000321094802680A4302600848BB
:10B1000002680A4302600748804707480047FEE795
:10B11000FEE7FEE7FEE7FEE7FEE70000240500404D
:10B120005405004045B50100C1B0010003460B4382
:10B130009B0703D009E008C9121F08C0042AFAD2ED
:10B1400003E00B780370401C491C521EF9D2704773
:10B15000D2B201E00270401C491EFBD270470022AF
:10B16000F6E710B513460A4604461946FFF7F0FF06
:10B17000204610BD064C0125064E05E0E36807CCCD
:10B180002B430C3C98471034B442F7D3FFF79CFF95
:10B190005CE101007CE1010010B500F095FF10BDFD
:10B1A000F7B50746002401202E49000415468860A3
:10B1B0002D4EB078002802D02C48FFF7EDFF002F6D
:10B1C00002D12B48FFF7E8FF7068002802D0294819
:10B1D000FFF7E2FF284677600127274D002820D09F
:10B1E000012828D0022824D02448FFF7D5FF24487E
:10B1F000B770002101600199611889B229602E6839
:10B2000020494F606D680068002802D01E48FFF793
:10B21000C3FFA64211D3A54201D3B5421CD31B489C
:10B2200018E0184847606C680760154900200860FE
:10B23000DDE7AC68DBE72C68D9E7B54201D2012035
:10B2400000E00020AC4201D8012100E0002188424A
:10B2500002D10F48FFF7A0FF012002490004486017
:10B2600003B0F0BD00A300403426002073000400AA
:10B27000750004007600040040A500408900040029
:10B2800040A1004040A000409B000400B00004002A
:10B29000C9000400F8B5FF20013000F093FF00243E
:10B2A00001250E4E0E4F002807D00E4804600120E5
:10B2B000B0607D70002000F013FBFF20053000F02F
:10B2C00081FF002808D00748001D04600220B060FC
:10B2D000BD70012000F004FBF8BD00000003004039
:10B2E0007826002000010040F8B55F4C206967789F
:10B2F000401C2061607D002802D05C48FFF74CFFB5
:10B30000204622785A4D00245A495B4E032A3FD1E9
:10B31000CA68002A3CD0012F03D0022F2FD05748F3
:10B320009EE007460069032802D05548FFF734FF26
:10B3300002203870B969491CB96152490C60C11EBC
:10B34000A960514908604B48C460046004614460CE
:10B35000032179707C603C753268117D00290AD028
:10B360004A498B68BB75C461494B01209861494BC0
:10B37000042098608C60D06800283AD1F8BD00693C
:10B38000012802D04448FFF707FF02F043F9F8BD57
:10B39000032F64D0012F2ED0022FF6D042783F4BDE
:10B3A0001201D218137B0027002B03D0CB68002B8F
:10B3B00000D00127927A334B02701C60032A48D0D8
:10B3C0000022D243AA60304B02221A60CC600322D2
:10B3D00042700C600C614C60446004753068006918
:10B3E000002800D08047002FD1D030688068002826
:10B3F000CDD08047F8BD0269012A18D0022AF9D1C0
:10B40000CC600C610C601F490C60111FA960082101
:10B410006960032101704460047530680069002888
:10B4200000D08047306880680028E2D1F8BD0C6009
:10B430004C600021C943A960012169603168097D20
:10B44000002902D0134A042151601549C0684860A0
:10B45000F8BD0822D243AA6008226A60B9E7114801
:10B46000FFF79AFEF8BD00000C27002090010A00AB
:10B4700000130040001100403C260020A9010A00F2
:10B480009F010A000012004080E200E040150040E9
:10B490000010004000F50140A4010A002CE1010069
:10B4A00000150040D6010A0010B503220021024811
:10B4B00000F058FF10BD000000B00040F8B5204D6E
:10B4C0002C468034012080F310886068002832D038
:10B4D00020680C21484340190279310A09021143BE
:10B4E0004279FF231B02120299431A4011438279C9
:10B4F0001B02120499431A401143C2790E02360A04
:10B5000011060E4381688289C08997B200040743FF
:10B510006068401E60602068401C206020680A2827
:10B5200001D300202060002080F310882B683A4669
:10B5300030469847C6E7002080F31088F8BD000029
:10B540003027002010B500F041FB002805D01F492E
:10B550001D484860C8131E4988611E48018CC9B245
:10B5600001290BD1828C120708D1028D1206120F0D
:10B57000042A03D1828D1206120F0AD0012921D18B
:10B58000818C09071ED1018D0906090F0A2904D0F3
:10B5900007E0114A01219160F5E7828D1206120F32
:10B5A00005D00D290ED1808D0006000F0AD10B4861
:10B5B0000168012904D00A49016001680129FCD110
:10B5C000C021416110BD0000DFFF07C00005004041
:10B5D000006C0040C00F00F00006004000EC064088
:10B5E0007593000070B5012013490004886013486A
:10B5F00000250560124C6068002802D11148FFF751
:10B60000CBFDA570636810480122656042600F4859
:10B610004168006895031430A94205D20325AD03A3
:10B62000A84201D9627005E0814201D3012000E007
:10B6300000206070984770BD00A3004040A100400A
:10B6400034260020EC00040040A0004040A500404B
:10B6500002E008C8121F08C1002AFAD170477047DB
:10B66000002001E001C1121F002AFBD17047000039
:10B67000BFF34F8F04490348C860BFF34F8F00BF2B
:10B68000FDE700000400FA0500ED00E00EB5002122
:10B69000029000916A4601910148FFF7E9FF0EBD53
:10B6A0000140000000B500F005F800BD00B500F055
:10B6B00009F800BD72B602480168491C0160704774
:10B6C000F825002003490868401E086000D162B6D2
:10B6D00070470000F8250020F0B549488BB003689A
:10B6E0004849494A012B02D04B6B002B05D15368C6
:10B6F0001B78202B01D8012300E00023434D0324B5
:10B700002C700024404A002B146057D08468826853
:10B71000CA623D4A03A901920091C26801232146F1
:10B72000184602F053F9002824D0012805D0022839
:10B7300024D003284FD036484BE00398002802D08D
:10B740003448FFF729FD204602F092FA002802D182
:10B750003148FFF721FD68680222817D6846002696
:10B76000027001960681468144708170C67002F0B5
:10B77000CFF830E02948FFF70FFD2CE003980028B0
:10B7800002D12748FFF708FD204602F071FA002891
:10B7900002D12448FFF700FD68680222817D039EE4
:10B7A0006846027000236A460196138153814470F3
:10B7B00001278170C77002F0ABF80CE00020009008
:10B7C000034602460146019002F000F9042802D027
:10B7D0001548FFF7E1FC0C4C2068002807D0012039
:10B7E000607512482061042028700BB0F0BD01F094
:10B7F000C7FE00206075206100F01AF80BB0F0BDA4
:10B800000014004000150040E826002020260020FB
:10B81000C8050900B8050900B9050900BD050900FA
:10B82000C0050900C1050900CF050900CDB8010018
:10B8300070B501F0A5FE1C4C00251C4E01202561B1
:10B8400030701B481B490069086302F017FA002892
:10B850001FD002F013FA032802D01748FFF79CFC10
:10B86000022001F089FF002002F000F802F006FA41
:10B87000032802D01148FFF78FFC3078012802D04E
:10B880000F48FFF789FC022030700E482561E06008
:10B8900070BD02F079F80228E2D302F07BFA606012
:10B8A0000028DDD10848D9E7E8260020202600201E
:10B8B0009826002000150040800509008805090031
:10B8C00092050900D9B601007B05090010B50349AE
:10B8D00005200870FFF7ACFF10BD000020260020F7
:10B8E00070B5084C050009D010342168002907D034
:10B8F00008682060496828468847F6E70834F4E776
:10B9000070BD000078260020F0B5454885B000687D
:10B91000012803D04348406B002806D142484068C4
:10B920000078202801D8012500E000253F4C0126A1
:10B930006069002804D100F05DFF002800D1666135
:10B9400002F09CF9012802D03948FFF725FC39485C
:10B950004068007D002802D03748FFF71DFC01F049
:10B960000FFE002D57D00121084602F0F9F80528F6
:10B9700040D201007944097949188F4402381D38B2
:10B980003800002702F068F90390A689E58902F0E3
:10B9900069F90246274869464068837D0F7003991C
:10B9A000019169460E814D814A7000208B70C870EC
:10B9B000684601F0ADFF1DE0002702F04DF903904D
:10B9C000A689E58902F04EF902461A4869464068A0
:10B9D000837D0F700399019169460E814D814A70F4
:10B9E00001208B70C870684601F092FF02E0134896
:10B9F000FFF7D2FB00F09EFB20611148114942691C
:10BA000062602378022B01D0002A06D0C06808604B
:10BA1000002000F0C3FB05B0F0BD8068F7E7000030
:10BA20000014004000150040E8260020CC2600202D
:10BA3000A806090020260020A9060900C80609005A
:10BA4000982600200027002030B5234D83B0687E63
:10BA500000283AD000F06EFE002401280CD000F03F
:10BA6000B3FE1E48007F002802D1012081074860F4
:10BA7000002002F033FA6C6001F082FDAC706C764D
:10BA800005216846017001940481448144708470EA
:10BA9000C47001F03DFF1248124904700320886011
:10BAA00002F0ECF8012812D0022810D003280CD1A3
:10BAB000002300941A4619461846019401F086FFA7
:10BAC000042802D00848FFF767FB03B030BD00210F
:10BAD000084602F045F8F3E7CC260020982600201F
:10BAE0002026002000F50140E801090010B50222DF
:10BAF0000121132000F0A2FE02220121122000F0F9
:10BB00009DFE02220121112000F098FE0222012157
:10BB10000E2000F093FE022201210D2000F08EFE87
:10BB2000022201210C2000F089FE0A2000F07CFE98
:10BB3000092000F079FE072000F076FE062000F0D4
:10BB400073FE052000F070FE042000F06DFE03205F
:10BB500000F06AFE0A2000F07BFE092000F078FE6B
:10BB6000072000F075FE062000F072FE052000F0B0
:10BB70006FFE042000F06CFE032000F069FE10BD93
:10BB8000F8B5114B002106221C460F46083C455CC7
:10BB90005E5CB54208D00C4A00216760435C535498
:10BBA000491C0629FADBF8BD491C9142EFD36068B5
:10BBB000401C60600528F6D106220349002000F0F1
:10BBC0004FFE6760F8BD0000E82500201048018C9A
:10BBD000C9B2012917D1818C090714D1018D090639
:10BBE0000A0F03D1828D1206120F0ED0090F012900
:10BBF00003D1828D1206120F07D0032903D1808D45
:10BC00000006000F01D0002070470120704700009F
:10BC1000C00F00F00268134602E08A4204D01268A6
:10BC2000002AFAD10B60016070470000F8B5AA4DF8
:10BC3000002068610326AE60A849C8630120C8637C
:10BC4000A74C60698915884360616069000900013B
:10BC5000801D606160690F21090488433104401828
:10BC60006061A069012149068843A061A06949106B
:10BC70000843A061A069000A00022030A061A06909
:10BC8000FF2109028843A06196490220086000F064
:10BC900049FDE8619448A8616E60944801F042FD56
:10BCA000934948609348A269417F07231B049A4344
:10BCB00009040A43A2610021036A0A461827D60034
:10BCC0001846F040C0B28507C407ED0F240EAD0141
:10BCD00025434407E40F64012C430507ED0F2D01B4
:10BCE0002543C406E40FE4002C438506ED0FAD00A8
:10BCF00025434406E40F64002C43C0092043BC1BC9
:10BD0000A040521C0143D2B2042AD8D37448C16166
:10BD100078480021436A0A46D6001846F040C0B26F
:10BD2000C407250E8407E40FA4012C434507ED0F3B
:10BD30006D0125430407E40F24012C43C506ED0FD4
:10BD4000ED0025438406E40FA4002C434506ED0FC7
:10BD50006D002543C0092843BC1BA040521C014371
:10BD6000D2B2042AD8D35E4D2962624E0024301923
:10BD70002030007A082C4ED2A107C90EFF228A403B
:10BD8000D243042C23D26B6A13406B62C207130E9A
:10BD90008207D20F92011A434307DB0F5B01134363
:10BDA0000207D20F12011A43C306DB0FDB00134355
:10BDB0008206D20F92001A434306DB0F5B00134347
:10BDC000C00918438840696A0843686226E0AB6A84
:10BDD0001340AB628307C207DB0F120E9F011743AC
:10BDE0004207D20F53010207D20F3B4312011A43FD
:10BDF000C306DB0FDB0013438206D20F9700420617
:10BE0000D20F52001F433A43C00910438840A96A29
:10BE10000843A86202E03848FFF7BEF9641C082C0A
:10BE2000A5DB364C207CE860607C696B090A09025E
:10BE3000696300281CD001281DD0022825D00328C2
:10BE40002BD02F48FFF7A8F9A07C2E4B2E492F4C62
:10BE50002F4A00282AD0012832D0022807D1286191
:10BE60008C622C484B62C8622B484A630863F8BD59
:10BE7000686B6863E8E7686B012108436863FF202B
:10BE8000E863FF200830A863DEE7686B02210843FF
:10BE900068632248E863224806E0686B0321084390
:10BEA00068632048E8630020A863CDE7002028618C
:10BEB0008C621D484B62C8621C484A630863F8BD27
:10BEC000012028618C621A484B62C86219480863D5
:10BED00019484863F8BD000000F50140C01F00404C
:10BEE0000015004080E200E004110040E826002038
:10BEF000202600209826002039030900B8260020BB
:10BF0000C203090000500078001700404E000054A2
:10BF10003E420F8208800C6088647200FFFF0000C0
:10BF200021100100FFFFFF0003800C6022647200FB
:10BF300002800C6011646600DEC08F821CB5FFF7C2
:10BF4000D5FD002000F048FD642000F021FE042013
:10BF500000F03EFE03211C4800F0D4FD012000F05B
:10BF6000F9FDE120800000F023FE00F0E7FC00F086
:10BF700031F9002801D0FFF789FB002000F04AF9D1
:10BF80001249134A03C9019100901F206946088095
:10BF90000E48083000F0B0F9002801D0FFF776FB1A
:10BFA0000A480121083000F02BFA0848083000F058
:10BFB00097F9012000E0002040BF20BF20BF401CB7
:10BFC000C828F9D3F7E70000E025002000E10100D0
:10BFD00079DF0100F8B503041B0E0E460093C3B2CF
:10BFE000010E000200160024170C404295B2062BE9
:10BFF0005BD21A007A4412799218974402142742AD
:10C000003F3C002900D001210C4629043D46000494
:10C0100005430C43304600F041FE2A462146009875
:10C0200000F07AFCF8BD23488068407E002802D1E9
:10C030002148FFF7B1F8304600F030FE21462804D1
:10C0400001433A46009800F065FCF8BD002900D095
:10C0500001210C4600040443002907D0002E02D120
:10C060001648FFF799F8304600F018FE2146009870
:10C0700000F0B0FCF8BD00F05FFCF8BD00F040FD42
:10C08000F8BD0F484168491C416001780029F7D08C
:10C090008168002902D0491E8160F8BD00F0DAFEF7
:10C0A0000028E8D100F0A4FDF8BD0648FFF774F8B9
:10C0B000F8BD000000260020B5030500C3030500FD
:10C0C0008C260020E303050002490F220A70C86095
:10C0D000704700000026002009480A4A4168491CB0
:10C0E000416012681368994208D3002343600168D5
:10C0F000491C01605268914200D303607047000000
:10C100002C2600202826002070B5084D064C2968F2
:10C1100020684968884202D30548FFF73DF828683F
:10C1200021688068405C70BD2C26002028260020F5
:10C13000B200010001480068704700002C26002072
:10C1400001484068704700002C26002010B504000C
:10C1500002D10548FFF720F8044800210460044894
:10C160000160416010BD00002A0001002826002067
:10C170002C26002010B50446054800684068A042FF
:10C1800002D80448FFF708F80348046010BD000017
:10C1900028260020B90001002C26002010B50446F6
:10C1A000054800680068A04202D80448FEF7F4FF82
:10C1B0000348446010BD000028260020C50001008F
:10C1C0002C2600200121890740180068002800D093
:10C1D0000120704770B50C4C00252078002801D054
:10C1E00085250FE00021A16061602161E1600748C1
:10C1F00000680126304002D1032100F03DF80448D8
:10C2000086612670284670BD7826002000E100E097
:10C210000005004070B5154C0546A078002808D0F0
:10C22000002D02D06968012088470020FFF73AFA04
:10C2300015E00020FFF736FA002D04D00B48294600
:10C240001030FFF7E7FCE068002808D108490860D3
:10C2500008490220486006490120FC390860E0686E
:10C26000401CE0600020FFF721FA70BD7826002016
:10C2700004010040000300408207D30EFF229A40D1
:10C280008907090E10B59940002808DB8408104B77
:10C29000A400E418236893430B4323600AE00307D8
:10C2A0001B0F083B9C080B4BA400E318DC6994436C
:10C2B0000C43DC61C206D20E01219140002801DB53
:10C2C000054A1160002801DB0448016010BD000030
:10C2D00000E400E000ED00E080E200E000E100E0CA
:10C2E000016801220A604079022142008018014A57
:10C2F00011547047F025002070B50D460446002A01
:10C300000DD06079164980000A506079144E4100C2
:10C310004018361F305C002803D0082070BD07206D
:10C3200070BD0420A9782056FFF7A6FF05222168DA
:10C330001202288889188860617928794A0089184A
:10C34000891948706179E8784A00891889198870D4
:10C35000617901204A0089187054002070BD0000E6
:10C36000F4250020F7B5044682B0FF20413000904C
:10C370000125032089002D040027000226180191C1
:10C3800016E0706828420DD000982058002809D087
:10C39000B564B560009800212150184A0199F8B29F
:10C3A0005158884700986D00001D80B27F1C009096
:10C3B00004988742E5D3FF2071680130C907C90F8F
:10C3C00009D02158002906D0002121500B4901989D
:10C3D000095804208847FF200530726802210A426C
:10C3E00009D02158002906D0002121500349019885
:10C3F00009580520884705B0F0BD0000F42500204D
:10C4000030B5FF2401340122036800251D510323A8
:10C4100004681B02E4186264002902D00068C01896
:10C42000426030BD70B51B4C05462068062802D31B
:10C430001948FEF7B1FE21680020184E00290BD9DB
:10C440008200B258AA4203D11548FEF7A5FE0EE0BD
:10C45000401CC0B28842F3D31248002122224A4332
:10C460001318AB4206D0491CC9B20629F6D30E48B0
:10C47000FEF792FE20680D4980003058884202D0B5
:10C480000B48FEF789FE206881007550401C206033
:10C4900070BD000054260020850003003C290020C8
:10C4A000F60003005429002086000300ADDEADDE57
:10C4B00088000300014800687047000054260020EF
:10C4C00010B50446102802D30348FEF765FE60004D
:10C4D00002492018085C10BDC80003004C28002049
:10C4E00070B400201F4A01464300C3189C186170B5
:10C4F000A170D154401C1028F6D300211A4D1B4BBB
:10C50000DE240A46222042438E0050199851AC5432
:10C5100044708470C470047144718471C471047275
:10C5200044728472C472047344738473C473047455
:10C5300044748474C474047544758475C475047635
:10C5400044768476C476047744778477C477203041
:10C550000470491C44700629D3D30549062008609D
:10C5600070BC70474C280020542900203C29002032
:10C570005426002070B500250446102802D30F4829
:10C58000FEF70AFE60000E492218885C002813D0CE
:10C590000C2044430B48231850188478A4001D59DC
:10C5A0008478641C84708478801C032C01D300235D
:10C5B0000370885C401E8854284670BDA6000300A6
:10C5C0004C2800207C280020F8B50D460446102990
:10C5D00002D32048FEF7E0FD1F4900200968064607
:10C5E00000290CD91D4A8300D358A34203D11C480B
:10C5F000FEF7D2FD0EE0401CC0B28842F3D31948CA
:10C600000022222151430B18A34206D0521CD2B261
:10C61000062AF6D31448FEF7BFFD6800134A29180E
:10C62000505C032814D20C20454311482B1888185D
:10C630004578AD005C514478641C44704478401CDB
:10C64000032C00D30670505C401C50540120F8BDF0
:10C650000020F8BD8F000300542600203C29002054
:10C66000F600030054290020900003004C2800200D
:10C670007C28002010B50446102802D30948FEF794
:10C680008BFD600021180848425C002A08D00C226B
:10C690005443064AA218081880788000105810BD2C
:10C6A000002010BDB70003004C2800207C2800208B
:10C6B00070B5164900240A68002A25D09000144B52
:10C6C000144DC0188038C46F521EC5670A6000211F
:10C6D000002A0BD988001D58A54203D10E48FEF749
:10C6E0005BFD0EE0491CC9B29142F3D30B48002117
:10C6F00022224A431318A34206D0491CC9B2062974
:10C70000F6D30748FEF748FD204670BD54260020AA
:10C710003C290020ADDEADDEF600030054290020E8
:10C720007D0003000048704748A000400048704763
:10C7300040A10040014800787047000034260020E6
:10C7400070B5114801254560C560104E0024B460E5
:10C750000F4845600F484068002802D00E48FEF799
:10C760001BFD00200D49C04388600D480460042073
:10C7700030610C48446005704470847008150A49A3
:10C7800008600A49086070BD00A0004000A5004094
:10C7900040A0004040A500403500040000A3004038
:10C7A00040A100403426002080E200E000E100E0EB
:10C7B0000349012008600349002008707047000009
:10C7C00000A000403426002010B407480121416039
:10C7D000C16000220548064C426042708B02236013
:10C7E0008270017010BC704700A000403426002009
:10C7F00080E200E0014840787047000034260020C5
:10C8000070B552000A439900049D0A432902059E0F
:10C810000A43310405240A43240780000721001934
:10C8200009024018026070BD1CB5002100910B4642
:10C83000012201911146FFF7E3FF1CBD1CB5002347
:10C84000009301920B4600221146FFF7D9FF1CBD51
:10C85000012181400148C16070470000000500507F
:10C86000F7B52A4D16460746082804D30420287039
:10C87000002003B0F0BD0198002806D0202E09D971
:10C8800006202870002003B0F0BD0320287000208F
:10C8900003B0F0BD384600F013FA032804D3092092
:10C8A0002870002003B0F0BD384600F005FA0328D8
:10C8B00004D30A202870002003B0F0BD00F0F8F97E
:10C8C000022804D208202870002003B0F0BD00F038
:10C8D000F5FA04460670407801210843607032463C
:10C8E000A01C0199FEF722FCF8B2214600F0C6FA1E
:10C8F000002802D0012003B0F0BD0548FEF74CFC33
:10C900000F202870002003B0F0BD0000002600209A
:10C91000DD0005007047000007B582B020210091BE
:10C920006946097B002903D06A46024900F016F8DF
:10C9300005B000BD582600207047000006488168F9
:10C94000002903D1022101700020704710B500F0CA
:10C9500065F9012010BD000000260020F8B516463C
:10C960000F46044600F0A8F9184D00280CD0002FFF
:10C970000ED0204600F09EFA0078316881420BD23A
:10C98000062028700020F8BD0B2028700020F8BD7C
:10C99000032028700020F8BD204600F065FA04004E
:10C9A0000CD0A01C0AD02278A11C38463260FEF7B9
:10C9B000BDFB204600F072F90120F8BD0448FEF7E7
:10C9C000EBFB0F2028700020F8BD0000002600209F
:10C9D0000501050070470000F1B5454D82B0002407
:10C9E0002C704448EC60046044608460424800F06D
:10C9F0006BF9A8600125002874D03D4F407E3F4967
:10CA000002267A68012817D0102A17D8100015D0EE
:10CA10000846FEF78BFB3948796800F06FFA012071
:10CA20000090029800280DD001280FD002280FD0C6
:10CA30000520387000200FE03E7001E007203870BC
:10CA40000020EDE7012000F0C3FA04E0022000E03E
:10CA5000002000F0BDFA0120009908400090042059
:10CA600000F036FA224900208968497E002903D067
:10CA70001F482746067002E000F03AFA2F461C498C
:10CA8000009889680740497E0020002903D0184893
:10CA90000670204602E000F0D1FA2846074014480C
:10CAA0008068407E002803D011480670204603E0CD
:10CAB000012000F03DFA28460D4907408A68002011
:10CAC000527E002A01D00E7002E000F0C1FA2C461E
:10CAD0003C40012000F0D0F8002C03D0012003B02E
:10CAE000F0BDFFE702480570002003B0F0BD000074
:10CAF000002600208C260020D5BF01001026002033
:10CB00007047000010B5114CA268527E012A11D066
:10CB1000102913D8002911D0002813D00A466160CB
:10CB200001460B48FEF702FB0948616800F0E6F990
:10CB3000012010BD02202070002010BD07202070B1
:10CB4000002010BD03202070002010BD0026002012
:10CB50001026002010B50D4902468B6802205B7E2E
:10CB6000002B02D00870002010BD002A0AD0012A34
:10CB700005D0022A05D00E200870002010BD00202C
:10CB800000E0012000F0D4F9012010BD00260020B3
:10CB900010B506498A68527E002A03D00220087028
:10CBA000002010BD00F00EFA012010BD002600206C
:10CBB00010B506498A68527E002A03D00220087008
:10CBC000002010BD00F01CFA012010BD002600203E
:10CBD00010B506498A68527E002A03D002200870E8
:10CBE000002010BD00F012FA012010BD0026002028
:10CBF00010B5012080F310880748417E002906D037
:10CC00008178002903D10121817001F0C1F9002050
:10CC100080F3108810BD0000CC26002070B5114CA8
:10CC2000607E00281CD1FFF701F80F4DA86800288E
:10CC300002D10E48FEF7B0FA6868002802D10C480D
:10CC4000FEF7AAFA01F036F9002802D00948FEF7EB
:10CC5000A3FA002001F042F90120607601F098F972
:10CC600070BD0000CC260020002700205E020900D5
:10CC70005F0209006602090010B5044604484068D6
:10CC8000002802D10348FEF787FA0348047510BD57
:10CC900020260020F6030900E826002010B5012117
:10CCA00081F3108800F0CAFF002080F3108810BDC7
:10CCB00010B500F0C7FF10BD10B500F0D9FF10BDD2
:10CCC00010B500F0E1FF10BDF8B50646012080F375
:10CCD0001088544C0025607003202070A57065609A
:10CCE000A560A581E5812561656125764E4865765B
:10CCF000056045608560C560056105754B4F18305E
:10CD0000BD604560FFF71CFD304600F045FE00F0B9
:10CD1000BFFF002001F0DAF83846FFF717FA454A5E
:10CD200043491068FF2633049843106008681A12BC
:10CD300090430860404801684022B14311430160BC
:10CD4000012080F310882178012905D06070607E71
:10CD500000285ED001F01CF9002080F310883046D6
:10CD6000364E042230617277354830623548706241
:10CD70003548012101720221417203238372C2727C
:10CD80000522027306224273072282730822C273AD
:10CD900005744174012282741E2070614B20C00012
:10CDA000F16070602278022A02D06068002833D0D7
:10CDB00039600F20B060022A02D06268002A2ED0AB
:10CDC0003960002070830120307670760020307743
:10CDD00000F0DAFF692030606078012802D01B483B
:10CDE000FEF7DAF901202070A5706560A560A581C5
:10CDF000E5812561656125766576FEF717FF0121DE
:10CE00001348890201608902016085F31088054892
:10CE1000F8BD01F0EFF89FE7B0683860C9E7386007
:10CE2000CFE70000CC260020E826002000270020C5
:10CE300000E400E008E400E014E400E098260020AC
:10CE400004070A0D05080B0EB82600203C02090055
:10CE500080E200E00348407E002801D000207047B7
:10CE600001207047CC26002010B5012181F31088E5
:10CE700000F044FF002181F3108810BD10B501229D
:10CE800082F3108800F03FFF00280DD00848817819
:10CE9000002904D1407E002801D001F079F800205B
:10CEA00080F31088012010BD002080F3108810BD91
:10CEB000CC26002010B500F039FF10BD10B50120C0
:10CEC00080F3108800F037FF002181F3108810BD37
:10CED0000549487705498A6907231B049A430004DA
:10CEE00002438A6170470000982600200015004028
:10CEF00001490876704700009826002070B50C00A4
:10CF0000054602D10748FEF747F9002D02D1064831
:10CF1000FEF742F90548856044600020FFF72AF9D2
:10CF200070BD0000480309004903090000270020E4
:10CF300030B41749174C8874174B1849184A194DC3
:10CF400000280DD0012816D0022807D120614B629D
:10CF500015488A62C86215484D63086330BC704743
:10CF6000002020614B6212488A62C86211484D63FA
:10CF7000086330BC7047012020614B620E488A6212
:10CF8000C8620E4808630E48486330BC7047000012
:10CF9000B82600200015004000500078001700401F
:10CFA0004E0000543E420F8208800C60886472007C
:10CFB00003800C602264720002800C6011646600C1
:10CFC000DEC08F8201494883704700009826002008
:10CFD00010B5012181F3108808490A78824205D0F2
:10CFE0004870487E002805D000F0D2FF002080F372
:10CFF000108810BD00F0FEFFF8E70000CC260020EE
:10D0000001494860704700009826002010B4084984
:10D01000084AC8601478084B022C02D05268002AD3
:10D0200002D0186010BC70478868186010BC704748
:10D0300098260020CC2600200027002002490874F2
:10D040000249C86070470000B82600200015004063
:10D0500001490877704700009826002070B51248F3
:10D06000124C4068407D002805D0012000F0FEFBF6
:10D07000A089401CA08100260D4930464E610D4913
:10D080004A680968551A00F029FF6069A84202D36E
:10D090000948FEF781F860690122291A0748FEF75E
:10D0A0007FF8666170BD000020260020CC2600209D
:10D0B00000F50140982600204D06090099DE010088
:10D0C000F0B5FA48FA4C4069FA4EFB4F87B0002899
:10D0D00003D1FFF78FFB002816D0F44D68680028B5
:10D0E00001D0401E68602878022802D069680029B3
:10D0F00079D0F1682160A978002975D0FEF7ECFF9E
:10D10000FEF7A2FC07B0F0BDE84800250078012832
:10D1100002D0022805D009E000F0A0FB002805D0CD
:10D12000B9E1387804287DD003287BD0FEF7D4FFFE
:10D13000DE484168002901D0491E4160017802297A
:10D1400002D04168002919D0F16821600446807836
:10D15000002815D0FEF778FC00F016FC022870D3EA
:10D1600003266846002406700194048144814470BB
:10D170008570C57000F0CCFB07B0F0BDB168E4E786
:10D1800000F038FF002811D00020766800F0A6FEDD
:10D190006069B04202D3C948FDF7FEFF6069012211
:10D1A000311AC748FDF7FCFF6561D5E720780028F4
:10D1B0007ED0012819D002287BD0C248FDF7ECFFB1
:10D1C000707E0128C8D120780228C5D06168002966
:10D1D000C2D10127BF0700286CD001286BD0BA4804
:10D1E000FDF7DAFFB8E77FE180E100F0C9F900F070
:10D1F00045FD002826D0708B00287CD0A189814273
:10D2000079D30121002000F0ABFC012700F024FDC0
:10D210000590A2890492E289039200F023FD6946F9
:10D220000F7000E037E1059901916946049A0A817F
:10D23000039A4A8148708D70CD70684600F068FB93
:10D24000A7E023E100F0A0FB02287DD3207802288C
:10D2500002D06068002804D0FEF772FF002832D0A8
:10D2600097E02069FEF786FF0020FEF797FF00F0A9
:10D27000B5FD002868D0A581E58100F0F3FC934955
:10D28000C86200F0EFFC012181409048016300F08A
:10D29000E3FC8F49086000F0D9FC8D4948608D4857
:10D2A000C860FEF731FF8949886000F0E7FC03E0C1
:10D2B000BEE09FE0DCE0C6E0012872D000F0DEFCBA
:10D2C00002285CD058E0307E002828D000F086FD8F
:10D2D00000285ED0A581E58100F0C4FC7B49C862CE
:10D2E00000F0C0FC012181407848016300F0B4FCEB
:10D2F0007749086000E055E000F0A8FC74494860F8
:10D300007448C860FEF700FF7049886000F0B6FC02
:10D31000012865D000F0B2FC02285FD02CE0FEF7B7
:10D3200009FF2169884234D100F058FD002830D02F
:10D33000A581E58100F096FC6449C86200F092FC8A
:10D3400001218140614800E023E0016300F084FC9A
:10D350005F49086000F07AFC5D4948605D48C8603C
:10D36000FEF7D2FE5949886000F088FC012837D0CA
:10D3700000F084FC022831D05748FDF70DFF2DE066
:10D3800000F0FAF9FFF7D2F954490861786840686B
:10D3900048610120376800F0A1FD6069B84221D3DF
:10D3A0004DE01DE0FFF726FA002802D04C48FDF7BB
:10D3B000F3FEFEF7A9FE45498968884202D0E0895C
:10D3C000401CE081FEF7A0FE4049886000F056FC5A
:10D3D000012805D000F052FC0228CDD10020CFE773
:10D3E0000120CDE760690122391A3548FDF7D8FEE2
:10D3F0006561E5E600200090FEF786FE3349896806
:10D40000884201D1009805E0FEF77EFE2F49886032
:10D41000012000903978401E084201D1FEF708FA39
:10D420000020776800F05AFD6069B842DAD306E060
:10D430000020776800F052FD6069B842D2D31F48DF
:10D44000FDF7AAFECEE700F019FC002800D083E625
:10D4500000F01CFD0028FAD1FFF76CF90128F6D086
:10D46000FFF7B2F9307F00280BD10120786008E087
:10D47000FFF760F90128EAD0FFF7A6F9307F00280E
:10D48000F3D0002000F02AFD656065E61548FDF741
:10D4900083FE07B0F0BD7068012241080348416176
:10D4A0000748FDF77DFE07B0F0BD0000CC26002048
:10D4B0000027002098260020202600204D06090085
:10D4C00099DE0100580409007204090000150040AB
:10D4D000E826002009B901001E06090000F50140F8
:10D4E0000A0509008C040900B16803E6022809D086
:10D4F000FEF7F2FD0020746800F0F0FC6869A042BD
:10D5000023D31FE03878042829D0032827D0FEF73A
:10D51000E3FD0024FEF7F8FD154FB968884203D0FB
:10D52000FEF7F2FDB86001241248641E0078044240
:10D5300001D1FEF77DF90020746800F0CFFC686926
:10D54000A04202D30C48FDF727FE68690122211A88
:10D550000A48FDF725FE0020686107B0F0BD70683D
:10D560000122410805486961FDF71AFE07B0F0BDC8
:10D5700000150040202600204D06090099DE01001C
:10D58000F8B51C48022707601B49401788601B48F4
:10D5900007601B48002404601A4E34611A490120B8
:10D5A00008618861194D287801281CD002281ED0F6
:10D5B00003281CD00120FDF78DFD346110482C702C
:10D5C000046000200C49C04388600C480760F46088
:10D5D000032068703460346174606C602C750C4892
:10D5E0006C750760F8BD0620FDF774FDE5E70220C5
:10D5F000E1E7000080E100E00013004080E200E08D
:10D600000012004000110040001000400C270020D4
:10D6100000E100E0F8B53348354A06690327324B8C
:10D620000025324C1168012E05D0022E48D0314819
:10D63000FDF7B2FDF8BD042606708669761C86618A
:10D640001F602D4E02233360E56025602561656013
:10D650002A4B08265E60097D002910D0284EB1684B
:10D66000284F81753868400702D42748FDF794FD9C
:10D67000E5612649012088610420B860B560206812
:10D68000002802D02248FDF787FDE068002802D07C
:10D690002048FDF781FD20480068800702D51F481B
:10D6A000FDF77AFD124C2068C068002800D0804742
:10D6B0002068417D0029BDD0194900684860F8BD47
:10D6C000E5602561256065601D6000230B4A0570DB
:10D6D000DB43936047704560057508690028EED00C
:10D6E0008047F8BD0C2700200012004000110040C8
:10D6F0003C260020E7020A0080E200E00013004020
:10D700004015004000F50140AD020A000010004045
:10D71000B6020A00B7020A0000E200E0B8020A00FE
:10D720000015004010B50D49022408600C48046043
:10D730000D480C4941620D490162FFF721FF0021AC
:10D740000B4803220170427041600161017541750F
:10D75000817508480460064810BD00003C26002082
:10D7600080E100E01410004000F501400411004089
:10D770000C27002000E100E0F8B505462A49000129
:10D780002A4C4718207D002802D02948FDF704FDC7
:10D790000026002D2AD0012D28D0022D26D0254884
:10D7A000FDF7FAFC2448FDF7F7FC002123486675D5
:10D7B000C9438160224902200860224865700068E0
:10D7C000032D0168A16040682661A661E0603A68A7
:10D7D00062601BD21C4B3A7A1A60FB7A1B4A002B00
:10D7E00008D05060506800280DD109E0207800284A
:10D7F000DBD0D7E751605068002804D1144800E01E
:10D800001448FDF7C9FC0D48797A41600D4800685D
:10D81000007D002805D0022D03D10F49A6750420F4
:10D82000486001206075F8BD2CE101000C27002044
:10D83000DB000A00F9020A00DD000A0000130040C4
:10D8400080E200E03C26002000120040001500406D
:10D8500000010A0005010A0000F501400248406885
:10D86000012800D00020704700110040F8B51E4C80
:10D87000074665781D4928014618607D012802D0B9
:10D880001B48FDF789FC207D002802D01948FDF7D0
:10D8900083FC0120002120756175032D0AD2002F21
:10D8A00001D131680860022D01D0012D05D1B07A77
:10D8B000207002E01048FDF76FFC10480068007D02
:10D8C00000280FD0022D0DD10D484068400702D42A
:10D8D0000C48FDF761FC0C484068002802D10B4859
:10D8E000FDF75AFCF8BD00000C2700202CE10100D8
:10D8F00021010A0022010A003A010A003C26002008
:10D9000000F5014040010A000015004041010A00F5
:10D9100070B5184D04462868002802D11648FDF756
:10D920003BFC164E70680A2802D31548FDF734FCFC
:10D93000E86F0C21484341192078087160784871DC
:10D94000A0788871E078C8716068886020898881D3
:10D950006089C8817068401C7060E86F401CE8678F
:10D96000E86F0A2801D30020E86701200549000577
:10D97000086070BD3027002034000B00B027002065
:10D9800035000B0000E200E0024840680A21081A56
:10D99000C0B27047B027002010B5040002D107487C
:10D9A000FDF7FAFB06490C600020C86705490860CE
:10D9B0004860012004490005086010BD29000B00E3
:10D9C00030270020B027002000E100E0FFB55A48D2
:10D9D00085B0C06F032500270F9E0C46002802D19A
:10D9E0005648FDF7D9FB54480078032802D0544824
:10D9F000FDF7D2FB5048C06F41785248CA070190EA
:10DA0000002A1ED1807C00281BD0002000900598A1
:10DA100000286ED0079849070002890F000A464B7C
:10DA200009060843A200D118896B00220E9B884288
:10DA30001A60326003905ED03F4FF86F002805D126
:10DA400001E00120E2E74048FDF7A6FB3A48214605
:10DA5000C06F08310291FEF7B7FD002804D0002006
:10DA600035490127C86700E000270098384000903A
:10DA7000002F40D0029881002F4809180398886130
:10DA800008990F4236D03148005D002832D0204638
:10DA9000FEF716FD002802D12D48FDF77DFB20463C
:10DAA000FEF768FD0290002811D001982546007C01
:10DAB000002805D020480069A84201D100F040F9B3
:10DAC0001D490020491980310870204948550E9998
:10DAD000029808600E99002909D0002802D11D483B
:10DAE000FDF75AFB002119480225015503E01A48A9
:10DAF000F6E712E00125009800280AD02046FEF73C
:10DB0000B9FD3060002803D010480121015501E023
:10DB100012483060002F01D006E00425064CE06F6B
:10DB2000FEF780FC0020E06703490020087000F049
:10DB300007F9284609B0F0BDB82700205B010C00AA
:10DB40005C010C00382800206F020C0040260020E9
:10DB500091010C0096010C009A010C001028002085
:10DB6000F8B52D4C064620780D46012804D0022831
:10DB700002D02A48FDF710FB002E28D0207801287B
:10DB800002D02748FDF708FBE068002802D12548AD
:10DB9000FDF702FBE0680078002804D0E06F6668BB
:10DBA000002805D101E0002712E01F48FDF7F4FA34
:10DBB00031460831E06FFEF707FD002802D0002053
:10DBC000E06702E01948FDF7E7FA022700E00427C2
:10DBD000002D1AD065682846FEF7CCFC06000ED052
:10DBE0001348007C002804D02069A84201D100F02D
:10DBF000A7F800206119803108700E494855A068C7
:10DC0000B04202D00C48FDF7C7FA0020207000F0A7
:10DC100097F83846F8BD0000B8270020FC000C003B
:10DC200002010C0003010C006F020C000E010C003D
:10DC300038280020402600201E010C0010B5FEF7F9
:10DC4000F1FB10BD10B5FEF735FC10BD0148C068F2
:10DC500070470000B8270020014880687047000026
:10DC6000B82700200148406870470000B82700200E
:10DC700010B50830FEF724FC10BD00000148007804
:10DC800070470000B827002010B5FEF719FC10BD42
:10DC900070B5FEF725FC0022144C154E1046010607
:10DCA000930001431B199961134605060146083389
:10DCB00029439D002D19A961A11880310870E11830
:10DCC00080310870B054521C082AE8D3207060607C
:10DCD000A060E0602061074960610874064A4874EA
:10DCE0001076E0670120887470BD0000B82700201E
:10DCF0004026002038280020F827002010B50830E2
:10DD0000FEF738FC10BD70B50E4604460025FEF740
:10DD1000D1FB002808D021463046FEF755FC0028EC
:10DD200002D000F00DF80125284670BD10B508306E
:10DD3000FEF7A0FC10BD10B5FEF7BAFC10BD000048
:10DD4000F8B50F4C2078002819D10E4E307C0028F1
:10DD500015D1082501276069FEF7B2FB002802D023
:10DD60003774606920616069401C6061082801D1D6
:10DD700000206061307C002801D16D1EEBD1F8BD20
:10DD8000B827002038280020014988747047000017
:10DD90003828002070B50F4D2878002802D00E4892
:10DDA000FDF7FAF9E86F002802D1FEF781FCE86779
:10DDB00004000CD0FF2020706078062108436070BA
:10DDC000FF222021A01CFDF7C3F903202870204664
:10DDD00070BD0000B82700203B010C0070B5264C38
:10DDE0002078002802D02548FDF7D6F9244D0026DA
:10DDF000287C002825D020696060FEF73BFCA060ED
:10DE0000002802D11F48FDF7C7F9A0684078C00775
:10DE100005D1A87C002802D00220E6600FE06068EF
:10DE20000830FEF74DFB03280BD2E06F002802D12B
:10DE3000FEF73EFCE067E060002802D00120207081
:10DE400002E02078002816D0A068002802D10E48F1
:10DE5000FDF7A2F92069606080000119C87EF923EE
:10DE6000401CC876A26880075178400F19400143D2
:10DE700051702E74012070BDB8270020C3000C0023
:10DE800038280020C9000C00E7000C000148007C85
:10DE900070470000382800200448017881704178DC
:10DEA00001708800024908580047000048260020F9
:10DEB0004C260020014800787047000048260020CA
:10DEC00001484078704700004826002002498870C9
:10DED00048700870704700004826002010B50446BE
:10DEE000022802D30248FDF757F90248447010BDDA
:10DEF0002A000D0048260020F8B51D4F1D4E04468F
:10DF00000025A9007A5C01209040B06000BF306914
:10DF100000BF306900BF3069227803035200DB0F75
:10DF20001A432270627843035200DB0F1A43627077
:10DF3000A27883035200DB0F1A43A270E2784304F5
:10DF40005200DB0F1A43E270227983045200DB0F88
:10DF50001A4322716279C0045200C00F02436271F9
:10DF60007858FEF775FC6D1CADB2072DC9D3F8BD0E
:10DF700010E10100000500501CB500200090019048
:10DF80006846FFF7B9FF6846FDF7FAFD1CBD0000C3
:10DF900010B5FEF7CFFB012820D1FFF791FF002835
:10DFA00002D00F48FDF7F8F800221E210D48FDF7BA
:10DFB000F7F80D48007F00280ED10C48012141617F
:10DFC0000B48002202608205116000BF00BF00BF45
:10DFD00000BF01680029FCD0FEF7EAFB10BD00007D
:10DFE0002C06090099DE010098260020000500405B
:10DFF00000010040F0B53B4E83B030787178884224
:10E000006DD0002801D1FDF711FE7078364D002447
:10E0100000281CD10320A860FFF730FE012804D09F
:10E02000022802D0032812D104E000210846FFF79D
:10E0300097FD07E0002300941A46194618460194FC
:10E04000FFF7C4FC042802D02848FDF7A5F86C614E
:10E05000FFF796FA264D274F2C606C602C61AC6060
:10E06000EC603078012802D0022809D01CE0FFF7CC
:10E0700005FE002815D000210846FFF771FD10E0CD
:10E08000FFF77EFA1C482C610470FFF7F7FD0328A8
:10E0900007D1002300941A46194618460194FFF749
:10E0A00095FC3078022802D07068002813D01348FD
:10E0B000F9680160707830700425684600230570A7
:10E0C00001930381438143708470C470FFF720FC87
:10E0D000012003B0F0BD0948B9680160EAE70020FB
:10E0E00003B0F0BDCC26002000F50140E801090096
:10E0F000E826002098260020202600200027002067
:10E10000000003410000000000B000400B000300CD
:10E110000A000000090000000700000006000000DF
:10E120000500000004000000030000000010004093
:10E13000101100400310000001000000001000401A
:10E14000000000000B02040000000000041000406A
:10E150000000000007080301000000007CE101004E
:10E16000E02500207800000050B60100F4E1010035
:10E1700058260020C80B000060B60100042A4D009C
:10E18000000000000000000000000000000000008F
:10E1900000000000000000000024F4000000000067
:10E1A00005000000000000000000000004192A3FE4
:10E1B0004D00000000000000000000000000000012
:10E1C000000000000000000000000000000000004F
:10E1D000000000000000000000000000000000003F
:10E1E0000000000000000000C1D001005DD001006F
:04E1F000000000002B
:040000050001B0C185
:00000001FF
