:020000040003F7
:10AC0000F839002009AD030023AD030025AD030092
:10AC10000000000000000000000000000000000034
:10AC200000000000000000000000000027AD03004D
:10AC3000000000000000000029AD03002BAD030060
:10AC40002DAD03002DAD03002DAD03002DAD030090
:10AC50002DAD0300000000002DAD03002DAD03005D
:10AC60002DAD03002DAD03002DAD03002DAD030070
:10AC70002DAD030015BC03002DAD03002DAD030069
:10AC80002DAD030075BC03002DAD03002DAD0300F9
:10AC900095BC03002DAD03009DBC03002DAD03004A
:10ACA0002DAD03002DAD03000000000000000000EA
:10ACB0000000000000000000000000000000000094
:10ACC0000348854600F088F8004800472DD003006F
:10ACD000F8390020056885F308884068FF2464B2CD
:10ACE000EFF30585002D01D1A6460047254606460F
:10ACF00021273FBAF0B40024002500260027F0B435
:10AD0000F92040B2004700000321094802680A43C5
:10AD10000260084802680A43026007488047074803
:10AD20000047FEE7FEE7FEE7FEE7FEE7FEE700007E
:10AD30002405004054050040BDBC0300C1AC030025
:10AD400010B5202A04DB0146203A9140002010BDB6
:10AD5000914020239C1A0346E3401943904010BDC4
:10AD600003460B439B0703D009E008C9121F08C024
:10AD7000042AFAD203E00B780370401C491C521ECF
:10AD8000F9D27047D2B201E00270401C491EFBD2DA
:10AD900070470022F6E710B513460A4604461946E6
:10ADA000FFF7F0FF204610BD30B5044600200346F3
:10ADB00000E05B1C934203D2E05CCD5C401BF8D00A
:10ADC00030BD0321001D401E037812021A43491EA4
:10ADD000F9D5104670470000064C0125064E05E0E7
:10ADE000E36807CC2B430C3C98471034B442F7D3AC
:10ADF000FFF76AFF0CF703002CF70300F0B514000F
:10AE000006001D008DB0129B02001B7803915BB2FF
:10AE10000293129B21001F1D029B04A800933B007C
:10AE200000F0A4FC04A90800129A00F08FFC310085
:10AE30003000129B04AA00F079FC21002000129B34
:10AE400004AA00F073FC029B29002800039A0093D7
:10AE50003B0000F08BFC2900129A04A800F076FC5D
:10AE6000029B04A93200080000933B0000F07EFC26
:10AE7000029B04A92200080000933B0000F076FC2E
:10AE8000029B32002100200000933B0000F06EFC8A
:10AE9000039922000800129B00F048FC029B31003D
:10AEA0002000009304AA3B0000F060FC220029006F
:10AEB0002800129B00F03AFC029B29002800039A0C
:10AEC00000933B0000F052FC2000029A04A900F01D
:10AED000DCFC0DB0F0BDF0B516001C0007000D0045
:10AEE00089B01A003100684600F030FC23006A4641
:10AEF0003900380000F01AFC230032006946684629
:10AF000000F014FC23006A462900280000F00EFC23
:10AF100009B0F0BD002A00D17047013A8B5C835420
:10AF2000F8E7F7B51E0001910223F45E0500210049
:10AF30001F201F31CB1703405B1807215B110093C3
:10AF4000E31DDC170C40E418E410944200D914000F
:10AF50006B460027DF572800390000F065FA220011
:10AF600028000199FFF7D6FF0222B35EE4009C425D
:10AF70001AD90022E41A009B944620329B00121B2F
:10AF8000EB180092043B191D8D420ED324363A0073
:10AF90002900300000F053FA012805D03B003200B0
:10AFA0002900280000F0D4FCF7BD186862460100B3
:10AFB000E1401143009A196090408446E2E70000A6
:10AFC000F0B5002797B004910393DF5705003900CF
:10AFD0001000140000F058FA002800D092E0039A04
:10AFE000049906A800F0B2FB039B290006AA0EA84C
:10AFF00000F09CFB06A90800039A00F0A7FB049947
:10B00000039B0800220000F091FB21002000039A1E
:10B0100000F09CFB039B22001E1D3300290028002A
:10B02000009700F0CDFA33002200210020000097A5
:10B0300000F0C6FA3300220029002000009700F03B
:10B0400095FB220029002800039B00F06FFB3300D2
:10B050002A0029002000009700F0B2FA33002200F5
:10B0600029002800009700F0ABFA2B68DB074BD5CE
:10B070003B0032002900280000F0AAF939000590B1
:10B08000280000F0F3FB234B059AFB189B00EB18FC
:10B090001968D2070A431A6029002000039A00F0B9
:10B0A00055FB3300210020000EAA009700F05EFB44
:10B0B0003300210020000EAA009700F057FB0EA9D4
:10B0C000080033002200009700F050FB2900280000
:10B0D000039B0EAA00F02AFB06AA330010002900E9
:10B0E000009700F043FB3A002100280000F0CDFB60
:10B0F0003A002000049900F0C8FB3A00049806A921
:10B1000000F0C3FB17B0F0BD3900280000F0AEFB23
:10B11000C2E7C046FFFFFF3F004870475CF60300F0
:10B12000F0B50024EFB007911F2100250493749B14
:10B13000089009921C5702229A5E4EAF1F32D31715
:10B140000B409B185B115BB20393013B9B00069382
:10B15000069A26AB56AED550D55195510122749B17
:10B1600038009A560499FFF7D5FE0122749B3000EF
:10B170009A56049B9918FFF7CDFE2100380000F085
:10B1800083F90490A84200D0D5E02100300000F0FF
:10B190007BF9049D0590002800D0CCE0749B390019
:10B1A00024331800039A049300F049F9059D0128FF
:10B1B00000D0C0E03100039A049800F040F9012863
:10B1C00000D0B8E03100039B049A1EA800F011FAE9
:10B1D000069B059A0EAE9A513000749B099A079906
:10B1E000FFF79FFE039B3100300000931EAA049BD3
:10B1F00000F089FA039B5EAD390000931EAA049B00
:10B2000016A800F080FA28002200089900F03DFB03
:10B21000A300EF180993089BA20099183800220098
:10B2200000F033FB749B22004433190036A80793C7
:10B2300000F02BFB079BA20099183EA8220000F00B
:10B2400024FB749B2900043336AA1EA8009406939D
:10B2500000F08CFA749B2A0000933EA93B0036A8AC
:10B26000FFF7CCFD1EA908002300069A00F0C1F9E3
:10B27000390028001EAA749BFFF72DFE059B039939
:10B280000A93079B30000B93089B0D950C9300F0DD
:10B29000CBFA0399070016A800F0C6FA3D1C8742B6
:10B2A00000DA051CADB26F1E3FB23900300000F06D
:10B2B0007DFB431E98413900060016A800F076FB7E
:10B2C000431E9841400006430AABB600F6582200E0
:10B2D000310026A800F0D9FAA300F11822002EA808
:10B2E00000F0D3FA21001EA800F09EF80123023DD1
:10B2F0001E932DB2002D21DA1EA908002300069A04
:10B3000000F077F91EAA2EA926A8749BFFF7E3FD8B
:10B31000039A049826A900F092F8012805D026A9DE
:10B320000800039B049A00F013FB22004EA926A8F4
:10B3300000F099F8050028006FB0F0BD749B1EAABC
:10B34000A4331E682EA9749B26A8B04729000EA816
:10B3500000F02CFB431E98412900060016A800F0BF
:10B3600025FB431E984140000643B6000AABF65841
:10B37000002E25D02200310036A800F086FA099B65
:10B380002200F1183EA800F080FA749B1EAA3EA984
:10B3900036A8FFF7A0FD069B36AA26A946A800946A
:10B3A00000F0E4F9749B26AA00933EA92EAB36A8C0
:10B3B000FFF724FD1EA90800749B46AA00F0B6F909
:10B3C000013D96E7000000000000000000000000C2
:10B3D00070B50824E31ADB0001330400002003A544
:10B3E0005B1920C940CAAD1920C4184720C940CAFA
:10B3F000754120C420C940CA754120C420C940CA33
:10B40000754120C420C940CA754120C420C940CA22
:10B41000754120C420C940CA754120C420C940CA12
:10B42000754120C4404170BD002310B51C005AB2C4
:10B43000914200DC10BD9A0084500133F7E710B54B
:10B44000013A52B2130601D5002010BD9300C45832
:10B45000CB589C4205D8013A9C42F3D2012040428D
:10B46000F3E70120F1E70300002030B5013A52B2C2
:10B47000140602D54342584130BD95005C594D59E0
:10B48000013A6C402043F3E700230200180010B596
:10B490005CB2A14202DC4342584110BD9C001459E9
:10B4A00001332043F4E70000F0B51E00A9B018AB4B
:10B4B00004900791100031000693170000F0B4F9D2
:10B4C000B3011B1A1F201BB2DC1704403B4DE418CC
:10B4D0006411019364B21D4004D52023013D5B42F9
:10B4E0001D43013508A821002DB2FFF79DFFA000E4
:10B4F000002D25DDB3009C4608AB18180023202240
:10B500001C00521B6146994212D101247300029320
:10B5100008AAB300D3180393019B002B48DA06ABAB
:10B52000A4003200E158049800F0AFF929B0F0BD52
:10B53000F958A9402143FC58C150D4400433E1E7F5
:10B5400008AB32003900181800F09FF9DDE706A8B3
:10B55000A10009589700C85908A979585918411AE3
:10B56000884202D088429B415B4206A84059013282
:10B570000590C15152B202998A42E8DBE41A634253
:10B580005C4108AD3100280000F070F9721EB30074
:10B590005B5992005159DB070B430398535131001B
:10B5A00000F064F90198E4B2013803B20193B3E703
:10B5B000012100220D1B1300AD00DCE71F000080FD
:10B5C00070B500261D0004AB9E5704003300FFF742
:10B5D000FFFE002806D1320021002800FFF72FFFD0
:10B5E000012805D033002A002100200000F0B0F926
:10B5F00070BDF0B50F000600A3B0190038001500AB
:10B600001C00FFF741FF002805D021003000FFF7A4
:10B610000BFF23B0F0BD39000127220002A800F083
:10B6200034F9220029000AA800F02FF9210012A8FD
:10B63000FFF7FAFE21001AA81297FFF7F5FE220085
:10B640000AA902A8FFF7FBFE002805D1220030005E
:10B6500012A900F01AF9DCE7029B01933B4209D1E1
:10B66000210002A800F002F92200290012A800F02F
:10B6700081FAE4E70A9B01933B4207D121000AA823
:10B6800000F0F4F8220029001AA8F0E723000028AF
:10B690001CDD02A90AAA080000F05AF9210002A83C
:10B6A00000F0E4F822001AA912A8FFF7C8FE00284B
:10B6B00005DA12A923002A000800FFF789FE12A963
:10B6C000230008001AAA00F043F9CDE70AA902AA4C
:10B6D000080000F03DF921000AA800F0C7F8220098
:10B6E00012A91AA8FFF7ABFE002805DA1AA9230051
:10B6F0002A000800FFF76CFE1AA92300080012AA0E
:10B7000000F026F9BEE770B5002604001D0090B0D9
:10B7100014AB9E576846330000F03AF833002A0015
:10B7200069462000FFF7C0FE10B070BD30B51C00A8
:10B730000023050091B06846E356AC3400F028F8C9
:10B74000694628002368984711B030BD30B5140011
:10B750000022050091B0A2566846AC3400F0A0F873
:10B76000694628002368984711B030BD70B500269F
:10B770001D0004AB9E570400330000F0E9F80028D8
:10B7800005D033002A0021002000FFF721FE70BD04
:10B79000F0B5DE4657464E464546E0B5013B9B00B8
:10B7A00098465B009946002300240025002601B43A
:10B7B000002702E0370040463F1A9A46A346AC46AF
:10B7C000B646F01B1458C859030C80B2250CA4B21D
:10B7D0001E006E436343454360431C041B0C001969
:10B7E0005E412C042D0C00196E4153465C466546A3
:10B7F0001B1874410020454176460437474501DC5B
:10B80000B742DADD0098835123462C4600250436E2
:10B810004645CDDD4E45CDDD835101BCF0BCBB4678
:10B82000B246A946A046F0BD0200013910B549B2A2
:10B83000041DCBB2080604D4013988002058002822
:10B84000F7D001335BB2181E0AD000200649591800
:10B8500089008A58002A04D1013B5B01181800B204
:10B8600010BD52080130F5E7FFFFFF3F002210B581
:10B870008900411804390B1D984200D310BD0C6893
:10B88000630813430B60E207F4E7002330B55CB2B2
:10B89000A24200DC30BD9C000D5901330551F6E792
:10B8A000F0B5DE4657464E464546E0B5013A9200B1
:10B8B000904652009146002200230024002501B446
:10B8C000002602E02E004046361A92469B46A446C9
:10B8D000AE46AF1BCB598859020C80B21C0C9BB2F0
:10B8E000150065435A43444358431304120CC018CF
:10B8F00055412304240CC018654152465B466446FA
:10B90000BE4203DA002712186B417C41002712184F
:10B910006B417C4175460436AE4202DAAF1BBE4233
:10B92000D3DD009842511A4623460024043545458C
:10B93000C6DD4D45C6DD425101BCF0BCBB46B2463A
:10B94000A946A046F0BD0000000000000000000075
:10B9500070B50824E31ADB000133002403A5C046B8
:10B960005B1920C940CAAD1B20C0184720C940CA76
:10B97000B54120C020C940CAB54120C020C940CA35
:10B98000B54120C020C940CAB54120C020C940CA25
:10B99000B54120C020C940CAB54120C020C940CA15
:10B9A000B54120C064416042604170BD1F234A110F
:10B9B00019401E3B8B409200105818407047000001
:10B9C000F0B50C0000278BB008220500FFF75DFFE3
:10B9D000E36A02AA0593236B11000693636B1000C0
:10B9E0000793A36B04970893E36B039709930823CA
:10B9F0000297FFF7EDFC08230600290002AA2800A1
:10BA0000FFF7E6FC236B02AA0593636B1100069314
:10BA1000A36B36180793E36B10000893082309976C
:10BA2000FFF7D6FC08232900361802AA2800FFF7E2
:10BA3000CFFC236A29000293636A36180393A36A32
:10BA400002AA0493A36B28000893E36B079709935A
:10BA5000082306970597FFF7BBFC636AA26B029366
:10BA6000A36A06920393E36AE26B0493636B290073
:10BA700005930893236A36180792099302AA0823AC
:10BA80002800FFF7A5FCE36A29000293236B361810
:10BA90000393636B02AA0493236A28000893A36AA2
:10BAA00007970993082306970597FFF751FF236B24
:10BAB00029000293636B361A0393A36B02AA0493C3
:10BAC000E36B28000593636A07970893E36A069778
:10BAD00009930823FFF73CFF636B29000293A36BD4
:10BAE000361A0393E36B02AA0493236A2800059392
:10BAF000636A08970693A36A0793236B0993082345
:10BB0000FFF726FFA36B361A0293E36B290003931A
:10BB1000636A28000593A36A02AA0693E36A04975E
:10BB20000793636B0897019309930823FFF710FFAE
:10BB3000341A0F4EBC4210DA0823320029002800C4
:10BB4000FFF746FC2418F7D40BB0F0BD08233200F1
:10BB500029002800FFF7FCFE241A002CF6D1082249
:10BB600029003000FFF76BFC0128EFD1ECE7C0465D
:10BB700060F6030070B5150002680123160004008A
:10BB80001E401A4205D00A002B000100FFF720FCDE
:10BB9000060029002000FFF769FE002E08D0054BA3
:10BBA000ED188023AD00641922681B06134323603F
:10BBB00070BDC046FFFFFF3FF0B58DB0040015001B
:10BBC0000E001C22002105A8FFF7E5F803230493CB
:10BBD0000023EB562A00310020000393FFF7B6FD47
:10BBE000039B2F1D21002000009304AA3B00FFF7B8
:10BBF000BDFD2B00320021002000FFF797FD2A0039
:10BC0000039B2100009320003B008432FFF7D8FC07
:10BC10000DB0F0BD1CB500246846047000F0D4FAE5
:10BC200003F056FA002818D10E480168002914D0F4
:10BC30000D498968C907C90F0FD004600B48806897
:10BC40006946087101A90A4802F0AAF8084802F0FA
:10BC500091F8002801D002F03BF86846007800F027
:10BC6000D1FA1CBD00D1004000D3004000D50040F7
:10BC700024F5030010B5064900200860486088607C
:10BC8000C860034940390860486003F0B9FA10BD44
:10BC90004011014010B503F02BFA10BD10B5064855
:10BCA0004068002805D08047002801D000F048F9FE
:10BCB00010BD01F077F810BD7026002010B501F01E
:10BCC000C1F8002805D01F491D484860C8131E4907
:10BCD00088611E48018CC9B201290BD1828C1207E0
:10BCE00008D1028D1206120F042A03D1828D12068A
:10BCF000120F0AD0012921D1818C09071ED1018D93
:10BD00000906090F0A2904D007E0114A01219160B0
:10BD1000F5E7828D1206120F05D00D290ED1808D08
:10BD20000006000F0AD10B480168012904D00A4916
:10BD3000016001680129FCD1C021416110BD0000F2
:10BD4000DFFF07C000050040006C0040C00F00F09E
:10BD50000006004000EC06407593000030B47446C5
:10BD6000641E2578641CAB4200D21D46635D5B00F7
:10BD7000E31830BC18470000002805DBC106C90ED7
:10BD800001208840014908607047000080E200E01F
:10BD9000002809DBC106C90E01208840034908605C
:10BDA000BFF34F8FBFF36F8F7047000080E100E05B
:10BDB000002805DBC106C90E012088400149086042
:10BDC0007047000000E100E0002805DBC106C90E55
:10BDD00001208840014908607047000000E100E050
:10BDE000002805DBC106C90E012088400149086012
:10BDF0007047000000E200E08307FF22DB0E9A405C
:10BE00008907090E9940002808DB830809489B0030
:10BE10001B18186890430843186070470007000F0C
:10BE20000838830804489B001B18D86990430843CE
:10BE3000D861704700E400E000ED00E0BFF34F8FF1
:10BE400004490348C860BFF34F8F00BFFDE70000FF
:10BE50000400FA0500ED00E002E008C8121F08C166
:10BE6000002AFAD170477047002001E001C1121F7B
:10BE7000002AFBD170470000202804DA012181400C
:10BE80000348014201D001207047002070470000A4
:10BE9000FC06FFBC86B00B2269468A8202220A7029
:10BEA00001234B7088700320C8700A7159204871B3
:10BEB000FE20887102A805A901307DDF002816D177
:10BEC0006846808A0B2807D8411C6A46D17109212F
:10BED0000930117280B205E00C206946C871082053
:10BEE00008721420C1B200231A46684672DF06B0F9
:10BEF0007047000010B5104C86B0207A800702D53C
:10BF0000002006B010BD18216846FEF742FF06204B
:10BF1000FFF7C0FF0028F4D169460870019008724D
:10BF200028220A824882684673DF0028E9D1A06887
:10BF300002210843A060E3E718260020FFF77EFFF8
:10BF4000FFF77CFFF7B5244C82B060880E46814233
:10BF50003FD800256846214F057000F035F922785A
:10BF60006078A188884201DA401C00E00020C0B25D
:10BF7000904204D16846007800F044F927E06578E3
:10BF80006078884201DA401C00E00020607068465A
:10BF9000007800F037F9BD4219D0A068EF0004998D
:10BFA000C151029900290CD0002E0AD06088324677
:10BFB0004543E0682818FEF7D3FEA068381886804D
:10BFC00002E0002138188180002005B0F0BD042077
:10BFD000FBE70920F9E7000030260020FFFF000002
:10BFE00010B50D4C03E0401C00E0002020702078CC
:10BFF000617881420FD021786088E26848438018D8
:10C00000A368CA00D1189A58898890472078A188D7
:10C010008842EADAE7E710BD3026002030B5CB00D1
:10C0200008339DB293070024002B01D0072030BDB8
:10C03000044B9A605219DA605C701C7058809980C9
:10C04000002030BD302600200A4B5B68002B07D053
:10C05000002A07D0002805D00068037C002B03D0FD
:10C060000820704707207047002303744174426121
:10C07000184670475026002010B50446082902D003
:10C080000020FFF75DFF21686068884710BD000051
:10C090001CB501910090034A08216846FFF752FF42
:10C0A0001CBD000079C00300FFB5074690070025BE
:10C0B00081B01E461446002825D1002C23D002F062
:10C0C0006BFD3046114EF060304610300570457003
:10C0D0000299817044607560357075701420FFF7A7
:10C0E0004BFE03211420FFF787FE1420FFF760FEAC
:10C0F000074CA76003211120FFF77EFE6068B06047
:10C10000002005B0F0BD0720FBE70000402600201E
:10C1100000150140FEB5204B5B68002B31D0002894
:10C120002FD0052901D20720FEBD4369002B28D05E
:10C13000437C012B27D00027029104460025694645
:10C1400016460D70684600F03FF801A803F0D4F8D9
:10C1500000281AD0012101701049446049688160AB
:10C16000029907614661C16068460B4900794870D1
:10C170006846007800F046F81420FFF731FE2846A4
:10C18000FEBD0820FEBD0F46D6E7684604250078B0
:10C1900000F038F8F3E700005026002000150140B9
:10C1A00010B50849496800290AD0002808D041691B
:10C1B000002905D000210174022102F0FBFF10BD0F
:10C1C000082010BD5026002030B5EFF3108172B664
:10C1D000094A54680123002C04D00370002900D1BF
:10C1E00062B630BD5360054B1D68054C2540156097
:10C1F0001C6000220270F1E76426002080E100E06C
:10C20000FC06FFBC08494A68002A0CD000280AD165
:10C21000EFF3108072B60A68044B1A6000224A607D
:10C22000002800D162B670476426002000E100E0DB
:10C2300070B5054601461C220E48FEF791FD0E4CD6
:10C24000002626702968002906D00822201DFEF746
:10C2500087FD201D7ADF02E00748001D7BDF0028F4
:10C2600007D1401E60806670044A00210448FFF731
:10C27000EBFE70BD542C00200426002095F2030034
:10C28000B8F40300F8B5214C0146028800261E4888
:10C29000E589102A13D01E4F112A1FD0122A2BD045
:10C2A000502A1AD1881DC988A94216D1418902296C
:10C2B00013D10C3000F008F900280CD112E08A8864
:10C2C00004464280104808220C301831FEF748FD21
:10C2D0006670002D01D100F06FF9F8BD0021C9434F
:10C2E000418046703868FFF75BFF0028F5D0A169F0
:10C2F0000029F2D08847F8BD034808220C300831E5
:10C30000FEF72EFDE7E7000004260020542C002055
:10C31000B8F4030010B502480068FFF741FF10BDF4
:10C32000B8F4030070B505460020C043134C86B036
:10C330002080012668468674114901822A4604A994
:10C340003046A0DF002817D10E4B0FCB03936B466E
:10C3500007C3A91C684663DF00280DD1284600F0FA
:10C3600087FB002808D1284600F050FA002803D1A6
:10C37000A0683043A060002006B070BD18260020E1
:10C3800059FE0000C0F4030070B5194D0024A868E0
:10C39000410701D5002070BD04210843164AA8605A
:10C3A0001449164B126800BF00BF00BF00BF00BF9A
:10C3B00000BF00BF00BF9A4200D000BF0139F2D1D8
:10C3C0002A880F498A4205D01321104676DF0400DF
:10C3D000E1D108E0800706D574DF0400DBD1A8684E
:10C3E00002210843A860FFF795FF204670BD0000BA
:10C3F00018260020C0D40100842600200024F40068
:10C40000FFFF000000B5254887B00068059001F0E7
:10C41000B5FA002817D1224813DF002813D1214B89
:10C420004822214905A802F023FE002801D0FFF789
:10C4300087FD01216A46084602F0EEFD002802D180
:10C44000684602F0DFFD002826D1184802F0D0FD32
:10C45000002821D100F076FC00281DD11248483078
:10C46000FFF760FF002817D11C216846FEF791FCFA
:10C470000F48019001208003029003206946087351
:10C480000020C88108740B4806906846FFF7D0FE6C
:10C49000002801D1FFF72EFD07B000BDBCF403005A
:10C4A00000AC030055F00300702C0020B9C4030059
:10C4B000CD0C0000B1C5030010B50446FFF7E2FE45
:10C4C000204601F0C5FC10BD4178027808021043F7
:10C4D000C007C00F704710B543689C18446000291E
:10C4E00004D105E018780870491C5B1C521EF9D273
:10C4F000012010BD002807D00449814204D8044916
:10C50000814201D901207047002070478826002011
:10C5100098260020F8B52248416800293DD00E68D1
:10C5200020494C6887688078E11B0D022D0AED1CBC
:10C53000002815D101201C49000448601A494039DF
:10C5400048601120FFF718FC1120FFF731FC174954
:10C55000012008602F2000F0E3FD114901208870C0
:10C56000B54200D23546E81900020E4B000A4033AE
:10C5700018600C4A5168001B091B0902090A0002D5
:10C58000000AC91C814207D9506818602F2000F0AA
:10C59000C7FD1120FFF724FCF8BD02F0FDFAF8BD3D
:10C5A00040260020001501404013014000100140CA
:10C5B00010B5FFF7C5FC10BDF8B5164800F034FC07
:10C5C000144D00260C3D144C002807D06169002949
:10C5D0001CD001206A461070684616E028780028B2
:10C5E00005D06169002911D0684606700DE06878B1
:10C5F00000280DD0A168094800220068FFF78AFDD5
:10C60000002803D0A169002900D088472E70F8BD0A
:10C610006168F0E710260020542C0020B8F40300D5
:10C62000F0B50026F643002A04D01268D243002356
:10C63000094F0DE03246FAE7C45C62400824550811
:10C64000D20700D032463A406A40641EF7D15B1CE4
:10C650008B42F1D3D043F0BD2083B8EDF0B514691F
:10C6600007462068251D8DB01646002819D00229DE
:10C670001BD00A2000906B4609AA384602F0E7F961
:10C6800000280CD009A901A8009A02F0BDF801AF5A
:10C690000FCF0FC7236871682A4605A898470DB0C9
:10C6A000F0BD384602F024F9F9E76946384602F051
:10C6B000B3F80028F3D0236871682A466846984783
:10C6C0000028ECD002980028F5D10198786001206C
:10C6D000E5E710B553685B789B099B0103D0402BBD
:10C6E00004D0002010BD00F005F810BDFFF7B6FF24
:10C6F00010BD0000F0B50F46516806464878144654
:10C700000207120F324D9300ED58302385B01840C8
:10C7100006D0102806D0202808D0302855D140E077
:10C7200022694FE061690120087049E0022F2AD197
:10C73000042A28D80120009001A93046676902F038
:10C740006BF800281DD00AE00A79424320691218CC
:10C7500001A8A847002810D03878401C38700398EA
:10C76000002804D0616838784A799042ECD3029866
:10C7700070600398002828D102E000200090F6E7BE
:10C78000009805B0F0BD62690B79107827694343C2
:10C790004979DB19884218D2401C10701A4661682A
:10C7A00010E008786169072A087009D1606801798A
:10C7B0002069FEF7EEFA60682169806802F047F8A8
:10C7C000226961683046A847DBE70020D9E700000E
:10C7D00038F6030010B50B4909480B4A096800BF39
:10C7E00000BF00BF00BF00BF00BF00BF00BF91423D
:10C7F00000D000BF0138F2D1FFF7F2FB10BD0000FE
:10C80000A0860100842600200024F40030B58FB0FB
:10C8100004461C216846FEF7BCFA142109A8FEF75D
:10C82000B8FA0020694607900A7808210A431023C5
:10C830001A4369460A70A27808A98A7001256946D8
:10C8400002070D84120F0A77EA184A778A7FF921C6
:10C850000A40921C1A432A4369468A7708A909911B
:10C8600007A917220A9169460A860D902346208857
:10C870000C3309AAA2DF0FB030BD00000248816866
:10C88000491E816070470000E02500201FB50E485A
:10C890000146826B5C31684601F0B6FF6C460ECCF7
:10C8A0000A480EC009490A48C8600A4900200860C1
:10C8B0004860094A0949054801F043FD002800D0B5
:10C8C000012004B010BD000000300020242C002006
:10C8D00079E60300FC250020982600204CF4030094
:10C8E000F8B50646041D00209C461146002A2BD0B0
:10C8F0001A0029D05F22125D002A03D06022125D47
:10C90000012A21D0227A002A1ED0E268332A1BD1C4
:10C910000022257C16E0032793003F031B19BF89E3
:10C920005B69BFB2BB420CD1254620356B794B4ABF
:10C93000002B0BD0012B12D0022B0CD0032B03D1D8
:10C9400009E0521C9542E6DC0A20F8BD2078002858
:10C95000FAD0906803E020780028F5D0D068002B4A
:10C9600004D0022B06D0032B07D103E06268824279
:10C97000EAD302E062688242E6D937466037387C03
:10C980000028E1D13748364A02602022426003463F
:10C990006246052000F088FB0028D5D1304831469A
:10C9A0007A7C72312030FEF7DBF92E482C490838AA
:10C9B00020310160797C416003462A4A2A490420DB
:10C9C00000F098FB002801D00520F8BD254E00207E
:10C9D0001C3E30616A79002A2BD0012A34D02348CA
:10C9E000FF218902081A022A28D0032AACD1297B08
:10C9F0000029A9D0A9790029A6D0A26A216B5318D1
:10CA00003361002A26D0002924D081420FD8214644
:10CA100020223F311248FEF7A3F93069002819D0CF
:10CA2000104A0021103A00F057FE002814D00420CC
:10CA3000F8BD287D002887D0A06B09E0297B00295C
:10CA400082D0216B3161E0E7A879002885D0A06A07
:10CA50003061DCE70320F8BD0120F8BD0030002084
:10CA6000C42B0020FC250020B0F4030000AC030020
:10CA700010B58EB004461C216846FEF78AF91421D1
:10CA800009A8FEF786F90022694607920878042172
:10CA9000084369460870A07808A988700220694692
:10CAA0000884501C0007000F0A7710304877887FF1
:10CAB000F92108400121801C08436946887708A8AD
:10CAC000099007A80A90142008860D922088231D3B
:10CAD00009AAA2DF0EB010BD044A002901D100232B
:10CAE00013705268002A00D0104770472826002093
:10CAF000F8B51C4617460D4606001ED0002D1CD06A
:10CB0000002C1AD000F0C2F9002818D0284600F0F6
:10CB1000BDF9002813D0204600F0B8F900280ED047
:10CB2000FEF7FAFA009023463A4629463046FEF7C9
:10CB3000F7FA002805D00020F8BD0E20F8BD10201F
:10CB4000F8BD0B20F8BD000010B50E4900230A788F
:10CB50004C78A24212D0521CD2B20A70022A00D1E2
:10CB60000B700A78074B920018339A580260886855
:10CB700010180002000A8860012010BD0360002028
:10CB800010BD000040260020F8B506461C481F4690
:10CB9000007815460C46C0070AD03046FFF7AAFCBD
:10CBA000002807D0002C07D0A00507D00620F8BD2C
:10CBB0000120F8BD0220F8BD0320F8BD3068A04276
:10CBC00004D8A80271680019884201D90520F8BD6F
:10CBD000002D10D0684601F0CFFE00280DD000983F
:10CBE0000221C0C00170A101090C8180058101F002
:10CBF00015FF0020F8BD0420F8BD0720F8BD000097
:10CC00006C26002030B4094B02241A6852085200E6
:10CC10001A60002906D022431A604268002A03D015
:10CC200030BC1047A243F7E730BC704724260020F1
:10CC30000348012201781143017000207047000071
:10CC40006C2600200348406E042801D00020704765
:10CC5000012070478C310020F8B507461E481E465B
:10CC6000007815460C46C0070ED03846FFF742FC48
:10CC700000280BD0002D0BD0002C09D028462043D3
:10CC8000800707D00620F8BD0120F8BD0220F8BDBE
:10CC90000320F8BD3868A04204D8B10078680919AB
:10CCA000884201D20520F8BD002E11D0684601F05F
:10CCB00063FE00280ED000980699076041600121AC
:10CCC0000172C5600461868201F0A8FE0020F8BDF3
:10CCD0000420F8BD0720F8BD6C26002070B5174B66
:10CCE0000446186E182148431549C0180A7895075C
:10CCF00015D5022C02D0032C1CD102E001F098F9CA
:10CD000018E04A78521CD2B24A70032A12D9002283
:10CD10004A70082101F0A8FF01F018FE0AE0500750
:10CD200008D5FB2002400A70586E002802D002206D
:10CD300002430A7001F03CFE70BD00008C310020FF
:10CD40006C26002010B5002486B0601C0007000F80
:10CD50000194694610300294087003A871DF00281E
:10CD600019D16946487B401C487303A9002070DF35
:10CD7000002810D1052209A168467CDF00280AD1CD
:10CD80000C21684681801821C180FF2104819131E6
:10CD9000418101A87ADF06B010BD00004B43444634
:10CDA00055000000F8B51F4C2078002839D02069C4
:10CDB000002807D00026E068002805D00025002EB6
:10CDC00004D014E00126F6E70125F8E76078002892
:10CDD00027D1684652DF052804D0002804D0FFF789
:10CDE000AFF804E0012602E0216900988847002D91
:10CDF00013D16078002814D1608869460880A06843
:10CE000061DF052804D0002804D0FFF799F804E07A
:10CE1000012502E0E168A0688847002ED6D0002DE9
:10CE2000CDD0F8BD70260020418805480288914287
:10CE300004D34088814201D8012070470020704708
:10CE4000082600201048018CC9B2012917D1818C15
:10CE5000090714D1018D09060A0F03D1828D12062C
:10CE6000120F0ED0090F012903D1828D1206120F65
:10CE700007D0032903D1808D0006000F01D00020C8
:10CE80007047012070470000C00F00F0800701D0FC
:10CE9000002070470120704770B5054608680C46B1
:10CEA00086684A683146284601F0F8FB60682861C8
:10CEB00020460C30686170788009022801D1241D59
:10CEC0002C6170BDF0B5284C2146103948688B683C
:10CED000227886469C46CF78667836E018235343FE
:10CEE0006168521CC918A378D2B2934200D10022C3
:10CEF0000B78022B02D0032B27D123E003464D6889
:10CF0000194603E0A94204D00B46C96900291CD088
:10CF1000F8E7002919D08B4208D1C069002805D153
:10CF2000124F0125BD600025AC4601270D68C96977
:10CF3000D961002909D00B685B190B6005E0017409
:10CF4000C06900E000210028F9D19642C6D1064907
:10CF5000624610398A604860CF70704501D0012068
:10CF6000F0BD0020F0BD0000502600200010014060
:10CF7000F8B52C4E044670680025009041E0002C66
:10CF800002D02046E46920E02648182310300178BA
:10CF900042684B43491CC9B2D21801708378994248
:10CFA00000D105701178506801292CD1017C00292D
:10CFB00029D191684160D16881601169C16051696E
:10CFC0008161F178002900D045604368B268164F4E
:10CFD000991A0902090AB94202D28268891806E040
:10CFE000D11A09028268090A8A4202D9511A0160DB
:10CFF00000E005604560012185600174C56102F0B3
:10D00000B9F8002CBBD10748103001784078814234
:10D01000BAD171680098814201D00120F8BD00208A
:10D02000F8BD000040260020FFFF7F001CB5002453
:10D03000022101911520012322460094214600F08F
:10D0400051FE01221E20009400231146019400F09D
:10D0500049FE012007498007886000F021F8002878
:10D0600001D0FEF7EBFE03200003806800F004F817
:10D0700000201CBD0005005010B5044600F07EFCE9
:10D08000002809D10549401E0860204613DF00280A
:10D0900002D12046FDF71EFE10BD000080E100E039
:10D0A00010B500F0EDFB10BD70B59CB01C461546E8
:10D0B0000E46052802D006201CB070BD60682028EE
:10D0C00001D00920F8E7684601F08EFE0028F3D170
:10D0D0002A463146684601F063FF0028ECD1012260
:10D0E0006846216801F0F8FD0028E5D12020606045
:10D0F0000020E1E770B5042801D0062070BD486823
:10D10000402802D15868402801D0092070BD30CA9B
:10D1100008681B682A462146FFF7EAFC70BD00003C
:10D1200000280FD00849094A096800BF00BF00BFA6
:10D1300000BF00BF00BF00BF00BF914200D000BFD2
:10D140000138F2D170470000842600200024F4004A
:10D15000F1B50320274D00038268286B6E6A121810
:10D1600082B0371A00920124A402A74200D83C469C
:10D1700000220121009800F0E9FA002838D10023AC
:10D1800022460299009800F043FB002830D1224645
:10D190000299009800F0C6FB002829D10022012145
:10D1A000029800F0D3FA002822D1286B00192863D6
:10D1B000002000F023FD009800190090029800194B
:10D1C00002903F1BCFD1032000038068002231462C
:10D1D000FFF726FAA96A814203D10121AE612962D3
:10D1E000E8610448243000F091FB002000F006FDC7
:10D1F000FEBD00000030002010B50A4C206A012856
:10D200000CD1E06900280BD003200003A1698068DD
:10D210000022FFF705FAE169814201D0002010BD2C
:10D22000012010BD0030002070B50D460A680B4982
:10D23000496B541A0E1822463146094800F072FB19
:10D24000002804D02146304600F07AFB70BD284605
:10D2500000F05CFB002000F0D1FC70BD003000202D
:10D2600000AC0300F8B51446404F0A780E4601257D
:10D27000B96BF86B1300FEF771FD077605203B1CB8
:10D28000766E7600B068002805D0FF210131884213
:10D2900003D90420F8BD0320F8BD3548002484706C
:10D2A000324820213830FDF774FD3C63B068B86324
:10D2B0005AE06060386CA06056E0B26813188B4288
:10D2C00003D96060386CA060E5E7284B71685C3377
:10D2D000C018FDF745FDF86BB168244A4018F863A3
:10D2E0004032B1687068FFF79BF93864F86BE0E78B
:10D2F000884201D00820F8BD1D4CA078002801D03C
:10D300000120F8BDFFF7C2FA012822D11948007D9B
:10D310000028194818D0783082781849012A01D09D
:10D3200005200CE0124A1C320CCAFFF7D9FA01287A
:10D3300005D1002000F062FC002802D00A2005463A
:10D3400012E00120A0700FE00078002801D00A252B
:10D350000AE00520F8BD386CA060F86B6060FF2023
:10D360000130206000E002252846F8BD0030002092
:10D37000E0250020F826002098260020242C0020FC
:10D3800010B5024603200A4B0003816818461C6949
:10D390001830012C08D05C69002C05D09B69054C25
:10D3A0000C301B19A343591800F006F810BD0000FB
:10D3B00000300020FF030000F8B50D461646014678
:10D3C0008A680020012A0DD00127A52A12D0AA2A96
:10D3D0001ED0AC2A0DD10C46284600F0A3FB002835
:10D3E00014D119E00F494969012902D12846FFF7F4
:10D3F000AFFEF8BD28460C4600F094FB002805D18E
:10D40000204600F083FA002000F0F8FB3760F8BDFA
:10D410002846FFF709FFF8BD21462846FFF704FF1D
:10D42000F4E7000000300020FEB50120009097488E
:10D430000E788078964F019015460C46BA6C396D7F
:10D44000786D3300FEF78AFC07F2053AF7F3F2EF46
:10D45000F200A168002946D08C4A8B05126902D0DF
:10D46000431893423FD101231B03994232D8019BB9
:10D47000864D002B7ED0411891427BD8F96CB9645F
:10D48000A1683865796438636978824A491C8907DC
:10D49000890F69700021A980A968491CA960A16849
:10D4A0008918EA68890A80187B4A00F04FF9002839
:10D4B0007ED0A868401EA8600520FEBD6960B86CDB
:10D4C000A8600198714E0028D4D0FF20A1680130D7
:10D4D000814201D90420FEBD386D7A6D0818801A8A
:10D4E0007A6C904201D90320FEBD694A60684832D7
:10D4F000FFF796F866498864086DA2688018086589
:10D500006860886CA860B088A2681118FF2907D8E5
:10D51000717867680B02614959180818394643E069
:10D52000FF210131091A8FB2717863680A025B49E1
:10D53000511808183A461946FDF712FCB088C01970
:10D5400082B2B280A068D21CC01BA0606068920842
:10D55000C0194F4F6060386BF1684018B168491CC2
:10D56000B16071780B024D4959184B4B00F050F9DE
:10D57000002800E063E04CD0B068401EB060F86C5A
:10D58000B864786D38656860F86CA86070780021C0
:10D59000401C8007800F7070B180A268002A71D093
:10D5A00003023E4861681818FDF7DAFB208900E0A5
:10D5B0002EE0B18840180104B080090C62D0344CD0
:10D5C000626D206B636C821A52189A425AD3F268C9
:10D5D000C91C8018B268521CB2608A0871780B02AC
:10D5E0002E4959182C4B00F013F9002816D0B068BA
:10D5F000401EB060E06CA064606D20656860E06C07
:10D60000A8607078401C8007800F70700020B08088
:10D6100038E0B188386B40183863B7E7B188206BC1
:10D6200040182063EDE727E001E004E02CE06960AA
:10D63000B86CA86026E07B6C081A984201D00820DC
:10D64000FEBDFA6400207965786400F0D7FA0028FE
:10D6500001D00A20FEBD0D4C386D2169884202D0F0
:10D6600010E000F031FBA0680028FAD10B48B03878
:10D6700000F090F9009005E0AA60386D6860012024
:10D68000000328600098FEBD0220F3E7E02500209B
:10D6900000300020FF0300007DC80300C4270020E5
:10D6A00010B50B480069400DC007C00F0ED10948E6
:10D6B000816D012901D0002010BD0021816508463F
:10D6C00000F09CFA002801D0FEF73AFC012010BDC2
:10D6D0000005005000300020F0B58C4618490324A6
:10D6E0004B69032109038968A4025B1A1F1B874247
:10D6F00015D3144C11602346183B196A00250129E3
:10D7000001D01D610EE0104E216889198E0AB60203
:10D71000BF1B0121B84207D96246002A01D004206C
:10D72000F0BD19615D6106E01D61064C596111682B
:10D730000C34711811606560A56020600020F0BD98
:10D740000010001018300020FF030000F0B50E4656
:10D750002049044608681546002785B0420719D5B8
:10D76000820702D50A2005B0F0BD012219491043F5
:10D770000860B2B22B4621461748FFF705FA0700AA
:10D780001448016802D04908490001E00122114310
:10D7900001601DE0A001000C0490204600F0B6FAE4
:10D7A000012080022418761EF7D1002D10D00B4ADC
:10D7B00091681068D26802910090019503926946C1
:10D7C00004980881A001000C488100216846A84700
:10D7D0003846C8E72426002088260020D0F403001D
:10D7E00010B501460020084C00290BD0FFF720FAA5
:10D7F000002804D1054801F071FC002801D0082060
:10D8000010BD0421216010BD24260020DDCC0300C2
:10D81000F0B51646184A074610681C46002585B024
:10D82000430717D5830702D50A2005B0F0BD0123B1
:10D83000114A184310600A46B3B239460F480094A3
:10D84000FFF70AFA0500F0D10B48012201681143E5
:10D8500001600EE03246384600F06EFA002C08D027
:10D860000020009003900297019468468681002171
:10D87000A0472846D9E7000024260020882600205B
:10D8800038B50020009000F091F96846FFF778FD68
:10D890000124002800D00094FFF702FF002801D0E7
:10D8A000009411E0009800280ED1FFF7A5FC002895
:10D8B0000AD0FFF7A1FC002804D0032000038068F1
:10D8C000FFF7DAFB002038BD0E4B0F4A0521002080
:10D8D000FEF7EAFB002801D0FEF732FB0A4A1421CA
:10D8E00078320820FEF79AFB002801D0FEF728FBCB
:10D8F00000F0D4F90028E6D100F0C8F8FEF770FB7C
:10D90000FCE7000091C00300DC2C00200021016036
:10D910004160816002480163416301614161704778
:10D92000003000201FB5054B92081B6A01AC009324
:10D9300007C4684618DF04B010BD0000E0F403001F
:10D940001FB58908002201AB009207C3684618DFA3
:10D9500004B010BD1FB5920813061B0E02D009209B
:10D9600004B010BD044B1B68029000930392019118
:10D97000684618DFF4E70000E0F403001FB5044B2D
:10D980006C460FCB0FC4684618DF04B010BD000012
:10D99000F0F40300F8B5074604462037787F0125E8
:10D9A000032808D00A25354E706900281DD00128AB
:10D9B0001ED00A20F8BD334E314830602020334657
:10D9C000706018461C380269C1680520FFF76CFBBF
:10D9D000002800D00A25214620223F313068FDF77B
:10D9E000E3F90028DFD00525DDE72448183001E001
:10D9F00022482430012D03D000218160416027E0BE
:10DA0000797900290ED001290ED002290ED00329E0
:10DA10000FD00A257979002910D0022911D00329C5
:10DA200011D10EE0012102E0A52103E0AA218160CD
:10DA3000F0E7AC218160A16A7163EBE76168B160D6
:10DA400001E06168F160B16C41600E491C390969FF
:10DA500001600A4820213830FDF79BF90748FF2272
:10DA6000B2215C30FDF78EF900203063064800F0EB
:10DA7000C5F8002800D00A252846F8BD003000204F
:10DA8000C42B0020FC25002011E0030070B501200C
:10DA9000FFF7A6FE002821D1114D124CA860A06B03
:10DAA00000281AD0FEF7F2FE002816D0206A0028BF
:10DAB0000BD1A069002808D0094A00210C32286146
:10DAC000FFF70AFE0120A87007E0E06A002804D1F1
:10DAD000A069002801D0606AEEE7002070BD000058
:10DAE000E02500200030002010B50C780C4B012CF4
:10DAF00001D0062C07D10C79012C03D0022C01D0C7
:10DB0000072010BD1C701B78012B03D0022B04D002
:10DB1000052010BDFFF7A6FB10BDFFF785FC10BD6B
:10DB2000E0250020F8B5034619480122016B1203D5
:10DB30008E18426B174D541A6419AC43A7087D190F
:10DB4000AD0AAD02CF18002A03D0914201D10020C6
:10DB5000F8BD2A4639463046FFF7FCFE0028F7D1CB
:10DB60002A4639463046FFF7DDFE0028F0D1761907
:10DB70007F19A54201D9002400E0641B0448416BD1
:10DB8000091B0163002000F039F8002CE1D1F8BD39
:10DB900000300020FF03000010B500225821024889
:10DBA000FEF73EFD10BD00000430002070B51049A6
:10DBB00000200870FF255D352A460E490E48FDF706
:10DBC000CFF80D4C2068401C04D0FFF7E5FF21681A
:10DBD00081420CD029460848FDF7DBF8012060603F
:10DBE000002000F00BF8002801D0FEF7A9F970BD65
:10DBF0002826002000FC03000030002070B50546F8
:10DC0000164C01E0FEF7E6FD20780028FAD101204D
:10DC10002070656001F086FB002201211048FFF7AB
:10DC200095FD0728F6D00025002814D1FFF7B4FF92
:10DC30000C49FF225D320860881AFDF791F801F067
:10DC400071FB094B572209490548FFF7E1FD0728F9
:10DC5000F5D0002801D02570032070BD28260020B3
:10DC600000FC030000300020D9CA0300A42E0020CD
:10DC700070B50848084D401BC6080020044606E061
:10DC8000E000401940688047002802D1641CB4427B
:10DC9000F6D370BD34F703002CF7030070B50848C5
:10DCA000084D401BC6080020044606E0E00040196D
:10DCB00000688047002802D1641CB442F6D370BDCE
:10DCC00034F703002CF7030010B5FEF789F910BDF7
:10DCD00002490120886002490860704700D3004073
:10DCE00004D0004070B552000A439900049D0A43D5
:10DCF0002902059E0A43310405240A4324078000B3
:10DD00000721001909024018026070BD084A02216B
:10DD1000516008490B68002BFCD09060086800280F
:10DD2000FCD00020506008680028FCD0704700003C
:10DD300000E5014000E40140F0B50C4D01236B60AB
:10DD40000B4C2368002BFCD0002306E09E008F596B
:10DD500087512668002EFCD05B1C9342F6D300202E
:10DD6000686020680028FCD0F0BD000000E501409C
:10DD700000E40140016880684A68824201D2521C76
:10DD800000E000220868824201D101207047002093
:10DD900070478068884201D9481C7047002070474E
:10DDA000FEB504460E46002069460190087068469C
:10DDB000FEF70AFA2046FFF7DDFF07000AD0207CB5
:10DDC000002807D00420019068460078FEF71AFA70
:10DDD0000198FEBD2068416820460D46FFF7D9FF37
:10DDE0002168002F486006D0206801682046FFF7B0
:10DDF000D0FF21680860E268012A15D0022A17D0F6
:10DE0000042A1AD0082A1DD01046616868430818F1
:10DE10003146FCF7A5FF204600F00EFE21688A6817
:10DE20008242D1D28860CFE7616830784855F2E706
:10DE3000616830886A008852EDE761683068AA003E
:10DE40008850E8E7626803CEEB00D21803C2E2E72D
:10DE500070B504462D4D00882E88142845D00DDC61
:10DE600002282FD010281CD0112821D0132817D118
:10DE700000231A46852130467FDF0DE0502840D030
:10DE8000512823D0522836D0552809D1A07900280E
:10DE900006D11321304676DF002801D0FEF750F876
:10DEA00070BDA0882880A86802218843A86070BD42
:10DEB000FEF720F8002801D0FEF742F80020C0430A
:10DEC000288070BD0021304667DFE5E7A079002893
:10DED000F7D021460E4800F0D5F80028F1D02146B1
:10DEE00008310B4800F016F870BD0023A0881A46D0
:10DEF000194686DFD0E70023A0881A461946A9DF15
:10DF0000CAE72146024800F005F970BD1826002036
:10DF1000B82C002030B5054687B00020059003904E
:10DF200004900090019002900C7B38482300FDF78C
:10DF300015FF076A052D3B236A4E6A004A89062AA7
:10DF400001D0032216E042888280487B0C460E34C2
:10DF500001902046FCF735FFE1780002000A09062F
:10DF60000843029001206946087003AA0020FFF7C9
:10DF7000BBFD024601213CE003206946087003AA6C
:10DF80000020FFF7B1FD0246042132E04A89032A4E
:10DF900001D0032206E08A7B4B7B110219434180AA
:10DFA00081800122022124E004206946087003AA2E
:10DFB0000020FFF799FD0246012801D0032118E057
:10DFC0002846059A049900F071FD07B030BD4889D4
:10DFD000022801D003220BE0487B0190062069460D
:10DFE000087003AA0020FFF77FFD0246012804D035
:10DFF0000621284600F0B4FDE7E703AC0ECC284626
:10E0000000F07EFDE1E703222146F2E7182600201A
:10E01000FFF72EFEBFF34F8F04490348C860BFF3DC
:10E020004F8F00BFFDE700000400FA0500ED00E09F
:10E0300010B5134A00215170017A012911D002292B
:10E040000ED18189491C8181C189491C89B2C18154
:10E05000028A914204D1002100F006FE00F076FC15
:10E0600010BD838AC28A991AFF2901DC89B201E0B6
:10E07000FF210131511889B2C1829942EBD010BD04
:10E080006C26002030B587B00024019402940394DC
:10E0900004948A1D8B790831022B33D153888589EA
:10E0A000AB422FD1127A042A2CD0062A2AD0052A74
:10E0B00028D002236A461371012595720D89958136
:10E0C0004D89D5810C310594049193820692104DAF
:10E0D000018A05AA2888A5DF002804D16846FEF732
:10E0E000F3F9002807D06846048101A92888A8DF31
:10E0F00000280AD006E0FF20FE306946088101A909
:10E100002888A8DF002007B030BD0120FBE7000011
:10E110001826002030B50546C888AA8887B09042E6
:10E1200023D10020059003900490009002900220DB
:10E130006A461070084612300190088A029003AABD
:10E1400069460020FFF7D0FC094C608800280CD0FD
:10E15000A088401E0004000CA08006D12846059A25
:10E16000049900F0A3FC6088A08007B030BD0000D7
:10E1700018260020F8B50D4614460646694600F0FC
:10E1800055FA00280DD0009BFF2B09D8581C83425C
:10E1900006D869788909022902D02979814201D2F9
:10E1A0000020F8BD2370611C3046009A00F062FB2D
:10E1B000F8BD10B5114600F0D2F810BD10B51146EB
:10E1C00000F0DFF810BDF8B50C4615460646694666
:10E1D00000F02CFA00280BD0009A501C904206D375
:10E1E00061788909022902D02179814201D2002077
:10E1F000F8BD2946304600F03DFB009A0021A954A5
:10E20000F8BDF0B585B00C468E68174605466946E0
:10E2100000F002FB00280ED0A06800280BD0607828
:10E220003A468006800F02283146684605D000F045
:10E23000D5F80199696005B0F0BD00F082F8F8E703
:10E240007CB50D461446694600F08FF900281FD0B2
:10E250002879082806D0042808D0022809D00128E7
:10E260000BD014E00098019903C40AE000982060E4
:10E2700006E0009800B2208002E0009840B22070D2
:10E28000C117009A019B50405940084301D000201B
:10E290007CBD01207CBD7CB50D461446694600F06E
:10E2A000A2F900281FD02879082807D000210428C7
:10E2B00008D0022809D001280BD013E0009801995A
:10E2C00003C409E00098206006E0009880B2208036
:10E2D00002E00098C0B22070009A019B5040594063
:10E2E000084301D000207CBD01207CBD7CB50D46DB
:10E2F0001446694600F077F900281FD02979009864
:10E30000082907D0C217042909D002290BD00129F6
:10E310000CD012E0019A05C40146134609E0C31768
:10E320000146206005E001B2218001E041B2217088
:10E33000CB1741405340194301D000207CBD012040
:10E340007CBD70B50D46064614461146284600F0C1
:10E350007EFA22462946304600F040F870BD38B5B6
:10E360000C460422694600F085FA002808D000987F
:10E3700069460002C978000A0906084320600120A6
:10E3800038BD1CB50C460822694600F073FA002817
:10E3900023D069460A784978080E09020A4369467B
:10E3A0008B78190C1B0408431A436946CB78190A69
:10E3B0000843694609791B060843694649791A43A7
:10E3C0000902084369468979090408436946C979FD
:10E3D000226009060843606001201CBDF0B50446B8
:10E3E00000209DB001900646029004A800F056F966
:10E3F0008AE003AB0AAA6946204600F0D1F800285B
:10E400000BD004A80A9900F05AF900280BD00598FF
:10E4100040788006800F58D065E06846007B002871
:10E4200077D11DB0F0BD0A98B04248D3059D04AE27
:10E43000059840780007000F082814D0304600F0F7
:10E4400055F90598A842F3D10026F6430A98B04240
:10E4500035D3A16811910C90684600780B9008980C
:10E460000568139121E005980678EFE729680F68A1
:10E47000002F05D0294620460B9B0C9AB84711E087
:10E48000129489680C9A09780B9F91420CD1294605
:10E4900017A8FEF701FD0120287317AA3946129824
:10E4A000FEF717F90028BCD0AD68002D03D0A06896
:10E4B00013998842DAD0A1681198814224D1684624
:10E4C0000178204600F014FA1CE0069840280AD291
:10E4D000C106C90E01208840069901AA4909890090
:10E4E000535803435350E568002D05D06846027821
:10E4F00004AB20460A99A8476846017804AA20463A
:10E50000FEF7E7F800288CD0A068002801D070E75B
:10E51000FFE70598069C457804A800F0E7F8002876
:10E52000F7D1A806800F04D105980078002800D004
:10E53000641C002C17D0002001A9620904E08300AC
:10E54000CB585B1C0DD1401C8242F8D89000095872
:10E55000E006C00E2022121A0020C043D0408142A3
:10E5600001D000205DE701205BE71CB50C46694641
:10E5700000F039F8002812D00098019AC10708D09D
:10E58000D10740080843C1435208D043216060606E
:10E5900004E0D10740080843510803C401201CBD12
:10E5A000F8B507460020187008700E4610601C462B
:10E5B00015466946384600F039F801460120002921
:10E5C0000AD0009900290CD0C8082860009840079C
:10E5D000400F30700120F8BDB968002901D000203B
:10E5E000F8BD2070FBE7F3B5002681B03446354610
:10E5F00003E0402E01D30020FEBD6946019800F0E3
:10E6000067F90028F8D06846077832467806400E49
:10E61000C10FFCF795FB29430443F61D0D46380650
:10E62000E7D40298046041600120FEBDF8B50E46B3
:10E630000746694600F04CF900280AD0684604787D
:10E64000200616D507256406640E03E0202D01D3AD
:10E650000020F8BD6946384600F03AF90028F8D0A5
:10E66000684601784806400EA8400443ED1D0806A0
:10E67000ECD401203460F8BD5968064A896891429B
:10E6800006D141688068044A491C401E11605060F0
:10E69000704700005CF30300FC25002001600023AC
:10E6A0008360C26041608B789A1803230261CB5665
:10E6B000D21842610878002800D00120704770B558
:10E6C00045680E46044660680178B14206D140783C
:10E6D0000007000F082801D0012070BD204600F07F
:10E6E00005F86068A842EED1002070BD30B54168E1
:10E6F0000A78002A0CD00B460C3343600A7B002AB0
:10E7000008D04C780A79A506AD0F032D07D00BE091
:10E71000002030BDC2680168FFF7C0FFF8E75D78F0
:10E72000AD06AD0F032D06D02509022D09D0A40991
:10E73000022C09D009E08D7804690022641B046171
:10E7400003E04C79624300E0042249788906890F8E
:10E7500002D18168491C81609C7801690919891876
:10E76000032201619A5689184161012030BD30B5FC
:10E7700041680024497887B00A07120F082A10D090
:10E780008A091DD08A09022A09D102698906890FDE
:10E790001460022901D0032901D14069047007B037
:10E7A00030BD0069056808E02C7329466846FEF70D
:10E7B00073FB6846FFF7DBFFAD68002DF4D1EEE791
:10E7C0008906890F012911D00229E6D00329E4D056
:10E7D000426851780907090F07290AD09168002972
:10E7E0000CD012790069FCF7BBFAD8E741690C70CC
:10E7F000EEE70169906800F02AF8D0E71179006926
:10E80000FCF7C7FACBE7000010B5024B002408C0A4
:10E8100016C010BDD7C4030038B50D46044669467E
:10E82000FFF704FF00280BD0E368A16805CCEB607C
:10E83000A96005C50098083C083D814201D200202E
:10E8400038BDA860A168081AA060012038BD00B5D5
:10E850000A4687B001466846FFF720FF002807D028
:10E860006846FFF784FF6846FFF740FF0028F7D1AE
:10E8700007B000BD7FB514460546002915D1134ADF
:10E880002868904208D110E0102269462846FFF718
:10E89000F1FF002807D0103C102CF5D8224669461D
:10E8A0002846FFF7E7FF04B070BDA868A04201D278
:10E8B0000020F8E72B682246284698470028F2D027
:10E8C000A868001BA8600120EDE70000D7C4030082
:10E8D00010B504468068002809D02368012220462C
:10E8E0009847002803D0A068401EA060012010BDFA
:10E8F00038B50024002907D0012913D0022913D0EC
:10E9000005291FD0002038BD05460122694628464A
:10E91000FFF7B0FF002813D0684600780006F4D453
:10E92000012038BD08220EE005466946FFF77EFE4D
:10E93000002805D000212846009AFFF79BFF38BD2C
:10E94000204638BD04220021F7E700000848416E48
:10E95000491E416604D10749FD230A781A400A700E
:10E96000016E491C0166042901D10021016670472E
:10E970008C3100206C26002070B50C490446486E8E
:10E98000042810D00A6E1218042A00D3121F401C4B
:10E99000486618204243551801462846FCF7F9F905
:10E9A0000120256070BD002070BD00008C3100206A
:10E9B00010B518481822016E51430C18406E0028FB
:10E9C0001FD0207A012802D0022816D10FE0A18A98
:10E9D000E08A091AFF2901DC8AB201E0FF22013234
:10E9E000E168800023690918181829DF01E0A0896F
:10E9F00028DF112806D0002803D00921204600F086
:10EA000033F910BD0449FD22087810400422104358
:10EA1000087010BD8C3100206C26002010B5054810
:10EA200001784A07920F04D1022211430170FFF7C7
:10EA3000BFFF10BD6C260020016806C98A4201D3C1
:10EA4000501A70478068401A401C80187047F8B50B
:10EA50001E681C4615460746002904D0012917D018
:10EA6000052921D118E000202060401C2060B04220
:10EA70001AD8012229463846FFF7FCFE002806D0A6
:10EA800028786D1C000601D52068EEE70120F8BD4E
:10EA900008200246186002E0042002461860294659
:10EAA0003846FFF7E7FEF8BD0020F8BDF7B5114D79
:10EAB0000A46064628881049884218D0287AC00796
:10EAC00015D00E4C60202070032161700120A070D1
:10EAD000E11C104600F0D4FBC71CE119029800F0BD
:10EAE000CFFBC219B189288800F0E2F8FEBD0820EA
:10EAF000FEBD000018260020FFFF0000CC2C0020E7
:10EB0000FFB5144D0A4606462888134981B088424D
:10EB10001ED0287AC0071BD0104C60202070062120
:10EB200061700120A070E11C104600F0A9FBC71C19
:10EB3000E119039800F0A4FBC719E119049800F04B
:10EB40009FFBC219B189288800F0B2F805B0F0BD6A
:10EB50000820FBE718260020FFFF0000CC2C002037
:10EB600070B50A4B04461888094DA8420CD01B7A90
:10EB7000DB0709D0074B60251D7059709A7003227E
:10EB8000A18900F095F870BD082070BD18260020FE
:10EB9000FFFF0000CC2C002070B501240D4960045B
:10EBA0000860BFF34F8FBFF36F8F0B494010886031
:10EBB000094940398860094D6C602F20FEF7B0FA92
:10EBC000AC60074D00242F20AC60FEF7A9FAAC70B2
:10EBD00070BD000080E100E04013014000100140E2
:10EBE0004026002010B50446FDF746F9002809D05C
:10EBF000A007C00E002C07DBA108174A890089185E
:10EC0000096809E0154810BD2107090F083989086E
:10EC1000134A89008918C969C1400806800F042871
:10EC200011D200280FD002280DD00E4801214268D1
:10EC3000002A0BD0620992008358E406E40EA1403A
:10EC40000B43835005E00548401C10BD2046FDF7EE
:10EC5000BBF8002010BD000000E400E0012000002F
:10EC600000ED00E0642600201FB500220092019212
:10EC700002920392037A012B02D0022B11D106E0FB
:10EC80006B461A7002690292828A9A8109E0012316
:10EC90006A4613708289C389D31A6A4613818389AD
:10ECA00053814268019200688268684690471FBDA0
:10ECB00007B584B00022009201926A4611800121BA
:10ECC000917006A90291034903916946A6DF07B036
:10ECD00000BD0000CC2C0020F8B516460D460400FF
:10ECE00008D0002D06D0206C802200213828225424
:10ECF00003D307E00E20F8BD2154401C3828FBD375
:10ED00000BE02154401C4028FBD32146084600F06C
:10ED100095F838212046FCF73CF8236CA26C590F7B
:10ED2000DB00E06CD21848412146A2640306170AB2
:10ED30002031E0641F43CA778F770304170C1F4309
:10ED40000302100E4F7718430877E06CC876020A6A
:10ED50008A76020C4A76000E08762146084600F0B4
:10ED60006DF8002E1ED00021E26EC800C2406A5429
:10ED7000A36EC3406A181371636EC3401372236E8F
:10ED8000C3401373E36DC3401374A36DC340137585
:10ED9000636DC3401376236DC340491C1377042968
:10EDA000E2D31FE000211823C800226D181AC240C8
:10EDB0006A54666DC6406A181671A66DC640167212
:10EDC000E66DC6401673266EC6401674666EC64063
:10EDD0001675A66EC6401676E66EC640491C1677B6
:10EDE0000429E1D30020F8BD002815D000210164DA
:10EDF0008164C16409490165094941650949816521
:10EE00000949C1650949016609494166094981669F
:10EE10000949C166002070470E20704767E6096AFD
:10EE200085AE67BB72F36E3C3AF54FA57F520E512B
:10EE30008C68059BABD9831F19CDE05BF3B500252A
:10EE4000CDB004462E464E9887193846FBF7B9FFD9
:10EE500000BA010AF87809020143AA000CA86D1C47
:10EE6000361D8150102DEED321E0A8000CA94318C7
:10EE7000803B996F844611220846D04113220E46EA
:10EE8000D6417040890A4840596C07270E46F9411F
:10EE900032461227FA414A40F1084A4080181A6C5B
:10EEA000596E8918421860460CA90A506D1C402DF5
:10EEB000DBD3206D0B90616D0A91A76D0997E26D10
:10EEC00006920092226E0892636E07939E46A36E8E
:10EED00005930193E36E0493029300239C46062658
:10EEE0001346F3410B261546F5416B40192615468E
:10EEF000F5416B40019E7546154096436E409E1944
:10EF000063469B00254D0393ED58029BEB18F618C2
:10EF1000039B0CADEB580546F318039302260346FA
:10EF2000F3410D26F5415D4016260346F3415D4051
:10EF30000B467B400E4603403E407340ED18019B5C
:10EF4000029373469646009A0193039B00970F46DF
:10EF50000146D218581963465B1C9C46402BBED311
:10EF60000B9B181820650A98401860650998C0190D
:10EF7000A065009906984018E065089880182066FA
:10EF8000079870446066019905984018A066029938
:10EF900004984018E0664FB0F0BD000038F503005B
:10EFA000F8B516460F46040005D0002E1ED0002FDF
:10EFB00001D0002518E00E20F8BD216C785D60546A
:10EFC000206C401C206440280DD121460846FFF7E4
:10EFD00035FF0123A16C5B020022E06CC91822649A
:10EFE0005041A164E0646D1CB542E6D30020F8BD39
:10EFF000002803D00249C860002070470E207047E7
:10F00000702600201CB5034901910091694660DF1C
:10F010001CBD0000E025002070B50E4605461446D4
:10F0200014211046FBF7B5FE01200021208021614C
:10F03000217326726572002D00D0A072002070BD71
:10F0400010B5002902D00020FCF77AFFFDF7AAFED8
:10F0500010BD000010B50021024A0846FCF772FFFF
:10F0600010BD000041F0030010B5FCF767FF10BDB4
:10F07000F8B50746002903D088070024002801D0EE
:10F080000720F8BD0F4D1048A9606A806B600068CA
:10F0900001267103084203D034460D20FCF778FEA8
:10F0A0000A49384610DF070006D0002C02D00D2098
:10F0B000FCF78AFE3846F8BD2E701620FFF792FD49
:10F0C000F8BD00007026002000E100E069F00300B8
:10F0D000014800787047000070260020002803D007
:10F0E00002490861002070470E20704770260020FA
:10F0F000FEB51F4C0025A768606802906846FDF7C2
:10F1000023FD0190FDF7DEFE06460198002822D07F
:10F1100000230098616817E00E680A46864202D90B
:10F12000301A086012E0801BF31800261660D668BB
:10F13000D169B446002E07D0FE183602360A566052
:10F1400066469660D56115460029E5D1284661607E
:10F15000FDF70EFF06E02846FDF70AFF002801D163
:10F16000002E02D00298FDF7D5F90020E070FEBD18
:10F170004026002010B50E4B5968002906D00268C1
:10F180000C68A24204D8A21A0A60C161586010BD7E
:10F190000B4604E00B46C969121B002904D00C6819
:10F1A0009442F7D3A41A0C600260C161D86110BD0B
:10F1B000402600207CB50D460646002469460C70AA
:10F1C0006846FDF701F801A800F096F800280ED077
:10F1D00005704660684609490079487068460078BD
:10F1E000FDF710F81420FCF7FBFD20467CBD6846B7
:10F1F00004240078FDF706F8F7E700005026002009
:10F20000F8B51D4D6C68002C35D01C4800274068AF
:10F21000A968401A0602360A2068B04218D8361A81
:10F22000C7192246107CE46900280FD00020107412
:10F23000EB68002B07D0916950699847002805D0EA
:10F24000FCF77EFE02E0516990698847002CE3D10B
:10F2500029786878814206D1401CC0B268700228C3
:10F2600001D10020687004490006800D18310F504C
:10F270001420FCF7B5FDF8BD402600200015014024
:10F280000870020A4A70020C8A70000EC8700420CE
:10F290007047000038B51549154A488890420FD08C
:10F2A0004A78144C521CD2B24A70237B934208D342
:10F2B000091D75DF002803D0A169002900D0884707
:10F2C00038BD00254D70217C002907D03B2176DF19
:10F2D000002803D0A169002900D08847616900296E
:10F2E000EED068460570884738BD0000042600202F
:10F2F000FFFF0000542C002010B509494B788C7892
:10F300005A1CD2B2944200D100220C78944201D10E
:10F31000002010BD0270486818214B43C01810BD72
:10F320005026002010B501E0FDF754FAFDF78AFCE5
:10F330000028F9D110BD000001010000010000000B
:10F340000000000002050000210000000000000095
:10F35000000000000000000000000000011104FC9B
:10F360000400000000000000021104FC0400000082
:10F3700000000000032104FC040400000000000061
:10F38000041101FF0100000000000000051102FE51
:10F390000400000000000000061104FC040000004E
:10F3A00000000000071104FC040000000000000041
:10F3B000081701FF2200000038F30300091001FFC5
:10F3C0000100000036F30300000000000000000010
:10F3D0000000000001010000040000000000000027
:10F3E000000000000000000000000000011101FF0B
:10F3F0000100000000000000021702FE640000008F
:10F400005CF30300031704FC04000000D4F30300C2
:10F4100000000000000000000000000001070000E4
:10F4200070000000ECF30300020100000100000086
:10F430000000000003050000410000000000000083
:10F44000000000000000000000000000011704FCA4
:10F4500070000000ECF30300021704FCB40000008D
:10F460001CF4030000000000000000000000000089
:10F47000B854C7458FC7AB835CD00D624984C95867
:10F4800039991E12B790371347E3B58E259B003E7E
:10F490000A0F9211F4C40C4ADB558EBFA407C41C9A
:10F4A00004571D9130A443CC30AC84C1F7DFF7B0D2
:10F4B00070F4030040000000342C0020010000071D
:10F4C00050EADA308883B89F604F15F30000C98E88
:10F4D000010000000000000000000000000000002B
:10F4E000010000000000000000000000000000001B
:10F4F000020000000000000000000000000000000A
:10F5000003000000000000000000000000000000F8
:10F5100004000000000000000000000000000000E7
:10F5200000030000803100205C310020200000003A
:10F530000100000000000000982F8A4291443771BA
:10F54000CFFBC0B5A5DBB5E95BC25639F111F15966
:10F55000A4823F92D55E1CAB98AA07D8015B8312A8
:10F56000BE853124C37D0C55745DBE72FEB1DE8054
:10F57000A706DC9B74F19BC1C1699BE48647BEEF83
:10F58000C69DC10FCCA10C246F2CE92DAA84744A0E
:10F59000DCA9B05CDA88F97652513E986DC631A884
:10F5A000C82703B0C77F59BFF30BE0C64791A7D563
:10F5B0005163CA0667292914850AB72738211B2EEB
:10F5C000FC6D2C4D130D385354730A65BB0A6A76D3
:10F5D0002EC9C281852C7292A1E8BFA24B661AA8DF
:10F5E000708B4BC2A3516CC719E892D1240699D6EF
:10F5F00085350EF470A06A1016C1A419086C371E68
:10F600004C774827B5BCB034B30C1C394AAAD84E45
:10F610004FCA9C5BF36F2E68EE828F746F63A57880
:10F620001478C8840802C78CFAFFBE90EB6C50A413
:10F63000F7A3F9BEF27871C6EDE2030097E203008A
:10F6400041E20300B3E10300BDE1030075E1030003
:10F65000C7E1030003E203000000000008200001EE
:10F66000FFFFFFFFFFFFFFFFFFFFFFFF00000000A6
:10F67000000000000000000001000000FFFFFFFF8D
:10F68000512563FCC2CAB9F3849E17A7ADFAE6BC44
:10F69000FFFFFFFFFFFFFFFF00000000FFFFFFFF76
:10F6A00096C298D84539A1F4A033EB2D817D03771C
:10F6B000F240A463E5E6BCF847422CE1F2D1176BB7
:10F6C000F551BF376840B6CBCE5E316B5733CE2B8A
:10F6D000169E0F7C4AEBE78E9B7F1AFEE242E34FB9
:10F6E0004B60D2273E3CCE3BF6B053CCB0061D65F6
:10F6F000BC86987655BDEBB3E7933AAAD835C65A7F
:10F70000C1AF0300B9BB0300C1B9030034F7030064
:10F71000E0250020B800000058BE0300ECF703000D
:10F72000982600206013000068BE030005C4030093
:10F7300089C3030001000000000000000000000079
:10F7400000000000000000000000000000000000B9
:10F7500000000000000000000000000000000000A9
:10F76000000000000000000000000000FFFF00009B
:10F770000000000000000000000000000000000089
:10F780000000000000000000000000000000000079
:10F790000000000000000000000000000000000069
:10F7A0000000000000000000000000000000000059
:10F7B0000000000000000000000000000000000049
:10F7C0000000000000000000000000000000000039
:10F7D00000000000000000000024F4000010000001
:0CF7E000000C040005CC03000000000039
:020000041000EA
:0410140000AC030029
:040000050003ACC187
:00000001FF
